:020000040000FA
:04000000B4011C2A01
:08000800F000030E8301BD00AE
:100010000A08B80003308A00492BA9004030A0002C
:100020004B30A1004C30A400A501E221AA01210817
:10003000031921282A145D20FC3E031C2128AA1440
:100040005D202003AB00280F2928FF30A400A50065
:1000500034282808A500A401A600A7012B0A03192B
:100060003428A200A301FC21A90B4D281708CF3981
:10007000A41B2038241B10380C3897002508950045
:100080008316071183122B0883169200831212081D
:10009000FC392A0404389200172AA90B5C281D0891
:1000A000CF39A41B2038241B10380C389D0025089C
:1000B0009B00831687104228172AA10CA00CA10CC4
:1000C000A00C080064008C1E62281A080314172A6A
:1000D00064000C1E682899000314172A0408A7005E
:1000E00088118810081183168811881008110F30A4
:1000F000880583122708B4189B283A30A100FC30E9
:100100008E213330A600AF201030A10068308E2140
:10011000AF2064308D21AF202230A600AF202830E0
:100120009A200C309A2001309A2006309A20B4147C
:1001300027089B283414A600341CA9288810033CE7
:10014000031CAE28AE200730A100D0308E2103144E
:1001500008003414FE3C0319172A8814341C341088
:1001600088150F3088052608F03988048811A60EF6
:100170003418AF2832308D2103140800B613290833
:100180000319B6170530A8002730A3001030D4207B
:100190000330A300E830D420A3016430D420A301AD
:1001A0000A30D4202408DB28A2002508A100240856
:1001B000A000E0212008A000A8030319B613290815
:1001C0000319E5282802031808002008031DB613A8
:1001D000B61B0800303E122A0830A600A7003C08D3
:1001E00084003A0836194E21361D50213B08840000
:1001F000841739088004A001A10126080319172AD1
:10020000B61812213B08840000083905FF3EA00DF6
:10021000A10DB61C1221A60B0029270836189D290E
:100220002008172A3C0884003A0880060000182994
:1002300019291A291B2980060800A3003B088400FD
:100240008417390980058413A3080319172AF0308D
:10025000A50022088038A400F030A5030319A500EA
:100260000319A3030319172A2008A6002108A700D1
:1002700027308D212608A0002708A100572103015F
:1002800020183908A21F3908A20803190301A40F76
:100290004B29800629294C2900002C298004532948
:1002A000FF3A80055429FF3A84178005172A210850
:1002B00020040319A00A8030201AA1062019A106E3
:1002C000A018A106210DA00DA10D172A0317831652
:1002D0008C010C1483120C0803178D0A172A0301D2
:1002E00003178C0083168C010C1555308D00AA3035
:1002F0008D008C148C187A290C1183128D0A172A00
:10030000A301A200FF30A207031CA307031C172AA6
:100310000330A100E6308E218229A101FC3EA0001D
:10032000A109031C9929FF300000A0070318942994
:10033000A0076400A10F93290800A201A301A4292A
:10034000A10CA00CA20DA30DFF3E0318A0292308A9
:10035000A1002208A000172A0310A10CA00CFF3E48
:100360000318AC292008172AA2000230C929A301CA
:10037000A2000330C929A2000130C929A301A200AB
:100380000630C929A101A301A2000430C929A20095
:100390000530A80023082102031DD02922082002CD
:1003A000043003180130031902302805031DFF3003
:1003B000172A0038031DFF300405031DFF30172ADC
:1003C000A501A4011030A600210DA40DA50D220841
:1003D000A4022308031C230FA5020318F6292208F0
:1003E000A40723080318230FA5070310A00DA10DD0
:1003F000A60BE4292008172A1030A800A101A001AB
:10040000A70CA60C031C0A2A2208A007230803181D
:10041000230FA107A10CA00CA50CA40CA80B002A6B
:100420002408172A840031088A00300882008313C8
:1004300003138312640008008316203099002030D3
:1004400098008312903098008A110A12C02A20085E
:10045000E8002108E9002208EA002308EB0024084C
:10046000EC002508ED002608EE002708EF0028081C
:10047000F1002908F2002A08F3002B08F4002C08E8
:10048000F5002D08F6002E08F7002F08F8003008B8
:10049000F9003108FA0034088316AA0083123608DE
:1004A0008316AB00831239088316C00083123A0802
:1004B0008316C10083123B088316C20083123C08D6
:1004C0008316C30083127D08C8007E08C900831606
:1004D00020088312CA00831621088312CB00B714A8
:1004E00033088A00320882006808A0006908A10069
:1004F0006A08A2006B08A3006C08A4006D08A500A0
:100500006E08A6006F08A7007108A8007208A9006D
:100510007308AA007408AB007508AC007608AD003B
:100520007708AE007808AF007908B0007A08B1000B
:1005300083162A088312B40083162B088312B60090
:10054000831640088312B900831641088312BA004B
:10055000831642088312BB00831643088312BC0033
:100560004808FD004908FE004A088316A0008312CF
:100570004B088316A1008312B7108A110A12672B49
:1005800083163A16BA1583128A110A123E2B1010DE
:10059000B7308E0703188F0A3C308F07101483166C
:1005A000CA0A64004A08643C8A110A128312031DB5
:1005B000092B64308316CA02C60A3A16640046083C
:1005C0003C3C8A110A128312031DEB2A8316B50ADA
:1005D000BA15C60183126400831635083C3C8A11A3
:1005E0000A128312031DF92A8316AC0A3A15B501C3
:1005F0008312640083162C08183C8A110A12831295
:10060000031D092BD40A0319D50A8316BA14AC01A9
:10061000831233088A00320882009010901110145F
:100620000800101008008310101883148316831814
:100630003A14831C3A10831210108E018F0110108F
:10064000B7308E0703188F0A3C308F07831683104C
:100650003A188314831283181014831C1010831605
:10066000CA01C601B501AC018312D401D5018316BC
:100670003A16BA153A15BA148312080083160730D1
:100680009F0007309C00FF30860083128A110A12F7
:10069000712B0408B500B71083160C1C612B831254
:1006A0000C1C612BB7185A2B5A30B2000330B30020
:1006B0008A01272A6030B2000330B3008A01C72ABA
:1006C0000C1083120313B71C672B8A01742A830151
:1006D0003508840038088A003D0E8300F00E700E45
:1006E00009000B178B170C1083160C1483128A0148
:1006F00013230330A300E8308A0181218A150A16EA
:1007000013258316BD018312D201D301FB01FC0125
:100710008A150A1629238316B4012808B200CC01D1
:10072000CB013408B9003208B8008312E401E501B6
:10073000E601E701DC01DD01D601D701DA01DB01C9
:10074000DE01DF0183160130BC00BB0183128A1574
:100750000A16482483160230BC00BB0183128A1596
:100760000A16482483160330BC00BB0183128A1585
:100770000A1648248316FF30B100C901A70183126D
:100780008A150A169322831631088312A800FF30B7
:10079000A2007F30A30001308A010D2064008A117D
:1007A0000A128519D62B8A150A16D229831601300A
:1007B000AD000230B300FE3083128A016F20013099
:1007C0008A016F20FE308A016F200D308A016F2070
:1007D0002D308A016F204D308A016F2045308A010B
:1007E0006F204E308A016F2055308A016F202D30E6
:1007F0008A016F20FE308A016F20C0308A016F208D
:100800005B308A016F2031308A016F205D308A01B0
:100810006F2052308A016F2065308A016F20663068
:100820008A016F206C308A016F206F308A016F203F
:1008300077308A016F2020308A016F205B308A0177
:100840006F2032308A016F205D308A016F20423084
:100850008A016F2061308A016F206B308A016F201E
:1008600065308A016F20FE308A016F2094308A0142
:100870006F205B308A016F2033308A016F205D303A
:100880008A016F2053308A016F2065308A016F2002
:1008900074308A016F2075308A016F2070308A01B0
:1008A0006F2020308A016F2020308A016F205B305A
:1008B0008A016F2034308A016F205D308A016F20F9
:1008C00054308A016F2075308A016F206E308A01A2
:1008D0006F2065308A016F20FE308A016F20D4308E
:1008E0008A016F205B308A016F2035308A016F20CA
:1008F0005D308A016F2041308A016F2062308A01A9
:100900006F206F308A016F2075308A016F2074303C
:100910008A016F2020308A016F2020308A016F20E9
:100920005B308A016F2036308A016F205D308A018A
:100930006F2053308A016F2065308A016F206E303E
:100940008A016F2073308A016F206F308A016F2017
:1009500072308A016F2083164130BD0083128A11E4
:100960000A16C4238A150A126727640083162D0805
:10097000013C8A110A128312031DC42C8A110A1623
:10098000082E8A110A120F2D640083162D08023CCE
:100990008A110A128312031DD32C8A150A160828FD
:1009A0008A110A120F2D640083162D08033C8A1148
:1009B0000A128312031DE22C8A110A12112D8A11C8
:1009C0000A120F2D640083162D08043C8A110A12A6
:1009D0008312031DF12C8A150A12D72B8A110A12D1
:1009E0000F2D640083162D08053C8A110A1283120C
:1009F000031D002D8A150A1203258A110A120F2DD4
:100A0000640083162D08063C8A110A128312031D06
:100A10000F2D8A110A1663258A110A120F2D8A01D9
:100A2000D62B83160130AD000230B300FE308312A6
:100A30008A016F2001308A016F20FE308A016F2009
:100A40000D308A016F202D308A016F2045308A01D8
:100A50006F2044308A016F2049308A016F20543062
:100A60008A016F2020308A016F2050308A016F2068
:100A700052308A016F204F308A016F2046308A0140
:100A80006F2049308A016F204C308A016F20453039
:100A90008A016F202D308A016F20FE308A016F207D
:100AA000C0308A016F205B308A016F2031308A01AB
:100AB0006F205D308A016F2053308A016F206F30C4
:100AC0008A016F2061308A016F206B308A016F20AC
:100AD00020308A016F2020308A016F2020308A0167
:100AE0006F205B308A016F2032308A016F205D30C9
:100AF0008A016F2052308A016F2065308A016F2091
:100B000066308A016F206C308A016F206F308A0155
:100B10006F2077308A016F20FE308A016F20943079
:100B20008A016F205B308A016F2033308A016F2089
:100B30005D308A016F2042308A016F2061308A0166
:100B40006F206B308A016F2065308A016F20203062
:100B50008A016F2020308A016F2020308A016F20A7
:100B60005B308A016F2034308A016F205D308A014A
:100B70006F2043308A016F206F308A016F206F3001
:100B80008A016F206C308A016F20FE308A016F204D
:100B9000D4308A016F205B308A016F2035308A01A2
:100BA0006F205D308A016F2053308A016F206130E1
:100BB0008A016F2076308A016F2065308A016F20AC
:100BC00020308A016F2020308A016F2020308A0176
:100BD0006F205B308A016F2003308A016F205D3007
:100BE0008A016F2083164130BD0083128A110A16D4
:100BF000C4238A150A126727640083162D08013C56
:100C00008A110A128312031D0B2E8A110A12572E03
:100C10008A110A12552E640083162D08023C8A118F
:100C20000A128312031D1A2E8A110A12BF2E8A116C
:100C30000A12552E640083162D08033C8A110A12ED
:100C40008312031D292E8A110A122D2F8A110A12CE
:100C5000552E640083162D08043C8A110A12831253
:100C6000031D382E8A110A12952F8A110A12552E49
:100C7000640083162D08053C8A110A128312031D95
:100C8000472E8A150A16DE228A110A12552E640092
:100C900083162D08063C8A110A128312031D552E55
:100CA0008A01D62B8A110A12552E8A01112D83161C
:100CB0000130AD000130B300FE3083128A016F2095
:100CC00001308A016F202D308A016F2045308A0162
:100CD0006F2044308A016F2049308A016F205430E0
:100CE0008A016F2020308A016F2053308A016F20E3
:100CF0004F308A016F2041308A016F204B308A01CA
:100D00006F202D308A016F208A150A120920831660
:100D10004130BD0083128A110A16C4238A150A12B3
:100D20006727640083162D08013C8A110A1283127A
:100D3000031DA02E8A150A126A208A110A12BD2EDE
:100D4000640083162D08023C8A110A128312031DC7
:100D5000AF2E8A150A12AC208A110A12BD2E640029
:100D600083162D08033C8A110A128312031DBD2E1F
:100D70008A01112D8A110A12BD2E8A01572E83165F
:100D80000130AD000130B300FE3083128A016F20C4
:100D900001308A016F202D308A016F2045308A0191
:100DA0006F2044308A016F2049308A016F2054300F
:100DB0008A016F2020308A016F2052308A016F2013
:100DC00045308A016F2046308A016F204C308A01FD
:100DD0006F204F308A016F2057308A016F202D30ED
:100DE0008A016F208A150A12092083164130BD003E
:100DF00083128A110A16C4238A150A12672764000F
:100E000083162D08013C8A110A128312031D0E2F2E
:100E10008A150A12EE208A110A122B2F64008316FB
:100E20002D08023C8A110A128312031D1D2F8A15F8
:100E30000A1236218A110A122B2F640083162D08FC
:100E4000033C8A110A128312031D2B2F8A01112DD4
:100E50008A110A122B2F8A01BF2E83160130AD0092
:100E60000130B300FE3083128A016F2001308A0105
:100E70006F202D308A016F2045308A016F20443069
:100E80008A016F2049308A016F2054308A016F2017
:100E900020308A016F2042308A016F2041308A0160
:100EA0006F204B308A016F2045308A016F202D3032
:100EB0008A016F208A150A12092083164130BD006D
:100EC00083128A110A16C4238A150A12672764003E
:100ED00083162D08013C8A110A128312031D762FF6
:100EE0008A150A127E218A110A12932F6400831632
:100EF0002D08023C8A110A128312031D852F8A15C0
:100F00000A12C0218A110A12932F640083162D0839
:100F1000033C8A110A128312031D932F8A01112D9B
:100F20008A110A12932F8A012D2F83160130AD00EA
:100F30000130B300FE3083128A016F2001308A0134
:100F40006F202D308A016F2045308A016F20443098
:100F50008A016F2049308A016F2054308A016F2046
:100F600020308A016F2043308A016F204F308A0180
:100F70006F204F308A016F204C308A016F2044303F
:100F80008A016F204F308A016F2057308A016F200D
:100F90004E308A016F202D308A016F208A150A1287
:100FA000092083164130BD0083128A110A16C4231A
:100FB0008A150A126727640083162D08013C8A11DE
:100FC0000A128312031DEA2F8A150A120A228A15B1
:100FD0000A120728640083162D08023C8A110A129F
:100FE0008312031DF92F8A150A1258228A150A1234
:100FF0000728640083162D08033C8A150A12831201
:10100000031D07288A01112D8A150A1207288A0153
:10101000952FFE308A016F20C0308A016F205B302F
:101020008A016F2031308A016F205D308A016F2084
:1010300020308A016F2054308A016F2065308A0188
:101040006F206D308A016F2070308A016F2065300B
:101050008A016F2072308A016F2061308A016F200F
:1010600074308A016F2075308A016F2072308A01D6
:101070006F2065308A016F20FE308A016F20943026
:101080008A016F205B308A016F2032308A016F2025
:101090005D308A016F2020308A016F2054308A0130
:1010A0006F2069308A016F206D308A016F206530B2
:1010B0008A016F20FE308A016F20D4308A016F20B0
:1010C0005B308A016F2003308A016F205D308A0116
:1010D0006F2008000A30E200E301E630E000E101A1
:1010E00083164708A200A3014630BD00FE308312DC
:1010F0008A016F2001308A016F202D308A016F2014
:1011000053308A016F204F308A016F2041308A01AD
:101110006F204B308A016F2020308A016F205430BD
:101120008A016F2045308A016F204D308A016F207F
:1011300050308A016F202D308A016F208A150A12E3
:10114000A5228A110A16C4238A150A12D5278316E6
:101150002208C700831208000A30E200E301FA30D7
:10116000E000E10183164808A200A3014630BD005B
:10117000FE3083128A016F2001308A016F202D30EA
:101180008A016F2053308A016F204F308A016F200F
:1011900041308A016F204B308A016F2020308A0154
:1011A0006F2054308A016F2049308A016F204D3002
:1011B0008A016F2045308A016F202D308A016F200F
:1011C0008A150A123B238A110A16C4238A150A12A9
:1011D000D52783162208C800831208000A30E200CF
:1011E000E301E630E000E10183163E08A200A3011E
:1011F0004630BD00FE3083128A016F2001308A0123
:101200006F202D308A016F2052308A016F204530C7
:101210008A016F2046308A016F204C308A016F208E
:101220004F308A016F2057308A016F2020308A01A9
:101230006F2054308A016F2045308A016F204D3075
:101240008A016F2050308A016F202D308A016F2073
:101250008A150A12A5228A110A16C4238A150A12AF
:10126000D52783162208BE00831208000130E20051
:10127000E3013C30E000E10183163F08A200A30136
:101280004630BD00FE3083128A016F2001308A0192
:101290006F202D308A016F2052308A016F20453037
:1012A0008A016F2046308A016F204C308A016F20FE
:1012B0004F308A016F2057308A016F2020308A0119
:1012C0006F2054308A016F2049308A016F204D30E1
:1012D0008A016F2045308A016F202D308A016F20EE
:1012E0008A150A123B238A110A16C4238A150A1288
:1012F000D52783162208BF00831208000130E200C0
:10130000E301E630E000E1017F088316A200A301BB
:101310004630BD00FE3083128A016F2001308A0101
:101320006F202D308A016F2042308A016F204130BA
:101330008A016F204B308A016F2045308A016F206F
:1013400020308A016F2054308A016F2045308A0195
:101350006F204D308A016F2050308A016F202D3070
:101360008A016F208A150A12A5228A110A16C4233F
:101370008A150A12D527831622088312FF00080057
:101380000130E200E3012030E0001C30E1005008B1
:101390008316A200831251088316A3004630BD00B5
:1013A000FE3083128A016F2001308A016F202D30B8
:1013B0008A016F2042308A016F2041308A016F20FC
:1013C0004B308A016F2045308A016F2020308A011E
:1013D0006F2054308A016F2049308A016F204D30D0
:1013E0008A016F2045308A016F202D308A016F20DD
:1013F0008A150A123B238A110A16C4238A150A1277
:10140000D527831622088312D0008316230883125F
:10141000D10008001B30E200E3013C30E000E101B4
:1014200083162508A200A3014630BD00FE308312BA
:101430008A016F2001308A016F202D308A016F20D0
:1014400043308A016F204F308A016F204F308A016C
:101450006F204C308A016F2044308A016F204F305A
:101460008A016F2057308A016F204E308A016F2029
:1014700020308A016F2054308A016F2045308A0164
:101480006F204D308A016F2050308A016F202D303F
:101490008A016F208A150A12A5228A110A16C4230E
:1014A0008A150A12D52783162208A5008312080080
:1014B000E201E301FF30E000E10183162608A2000B
:1014C000A3014630BD00FE3083128A016F20013037
:1014D0008A016F202D308A016F2043308A016F20EE
:1014E0004F308A016F204F308A016F204C308A01C3
:1014F0006F2044308A016F204F308A016F205730AF
:101500008A016F204E308A016F2020308A016F20BF
:1015100054308A016F2049308A016F204D308A0192
:101520006F2045308A016F202D308A016F208A1587
:101530000A123B238A110A16C4238A150A12D527D8
:1015400083162208A60083120800FE308A016F204D
:10155000C0308A016F2054308A016F2065308A01C3
:101560006F206D308A016F2070308A016F203A3011
:101570008A016F2020308A016F200430A900831671
:1015800022088312A400831623088312A5006E305C
:10159000B000B1018A01BE2000308A016F204330C3
:1015A0008A016F20FE308A016F2094308A016F20FB
:1015B0004D308A016F2069308A016F206E308A01B8
:1015C0006F203A308A016F2020308A016F20A901F4
:1015D0006208A4006308A5006E30B000B1018A0162
:1015E000BE2020308A016F204D308A016F2061308B
:1015F0008A016F2078308A016F203A308A016F208B
:1016000020308A016F20A9016008A4006108A500AC
:101610006E30B000B1018A01BE20FE308A016F2019
:10162000D4308A016F205B308A016F2001308A013B
:101630006F205D308A016F2020308A016F202030BA
:101640008A016F205B308A016F2002308A016F208F
:101650005D308A016F2020308A016F2020308A019E
:101660006F205B308A016F2003308A016F205D306C
:101670008A016F200800FE308A016F20C0308A0185
:101680006F2054308A016F2065308A016F206D30E1
:101690008A016F2070308A016F203A308A016F20F2
:1016A00020308A016F200430A9008316220883129B
:1016B000A400831623088312A5006E30B000B10188
:1016C0008A01BE2020308A016F2053308A016F20AA
:1016D00065308A016F2063308A016F20FE308A01F5
:1016E0006F2094308A016F204D308A016F2069305D
:1016F0008A016F206E308A016F203A308A016F2094
:1017000020308A016F20A9016208A4006308A500A7
:101710006E30B000B1018A01BE2020308A016F20F6
:101720004D308A016F2061308A016F2078308A0144
:101730006F203A308A016F2020308A016F20A90182
:101740006008A4006108A5006E30B000B1018A01F4
:10175000BE20FE308A016F20D4308A016F205B30BA
:101760008A016F2001308A016F205D308A016F206D
:1017700020308A016F2020308A016F205B308A017F
:101780006F2002308A016F205D308A016F20203087
:101790008A016F2020308A016F205B308A016F2020
:1017A00003308A016F205D308A016F2008008316A4
:1017B0000130AD000230B300FE3083128A016F2089
:1017C00001308A016F202D308A016F2054308A0148
:1017D0006F2055308A016F204E308A016F204530CE
:1017E0008A016F2020308A016F2050308A016F20DB
:1017F00049308A016F2044308A016F202D308A01E0
:101800006F20FE308A016F20C0308A016F205B306C
:101810008A016F2031308A016F205D308A016F208C
:101820004B308A016F2070308A016F2020308A018E
:101830006F2020308A016F2020308A016F202030F5
:101840008A016F2020308A016F205B308A016F206F
:1018500032308A016F205D308A016F204B308A015F
:101860006F2069308A016F20FE308A016F2094302A
:101870008A016F205B308A016F2033308A016F202C
:101880005D308A016F204B308A016F2064308A01FD
:101890006F2020308A016F2020308A016F20203095
:1018A0008A016F2020308A016F2020308A016F204A
:1018B0005B308A016F2034308A016F205D308A01ED
:1018C0006F2043308A016F2079308A016F206330A6
:1018D0008A016F206C308A016F2065308A016F2089
:1018E000FE308A016F20D4308A016F205B308A017C
:1018F0006F2035308A016F205D308A016F205330B0
:101900008A016F2061308A016F2076308A016F2052
:1019100065308A016F2020308A016F2020308A01D3
:101920006F2020308A016F205B308A016F200330E6
:101930008A016F205D308A016F2083164130BD001F
:1019400083128A110A16C4238A150A1267276400B3
:1019500083162D08013C8A150A128312031DB62C2A
:101960008A150A12C4258A150A12002D64008316EE
:101970002D08023C8A150A128312031DC52C8A15F4
:101980000A120E268A150A12002D640083162D08ED
:10199000033C8A150A128312031DD42C8A150A12DD
:1019A0004C268A150A12002D640083162D08043C6B
:1019B0008A150A128312031DE32C8A150A12902637
:1019C0008A150A12002D640083162D08053C8A151D
:1019D0000A128312031DF22C8A150A164E238A1549
:1019E0000A12002D640083162D08063C8A150A127F
:1019F0008312031D002D8A01D62B8A150A12002D91
:101A00008A150A12D72BFE308A016F2001308A0115
:101A10006F20FE308A016F200C308A016F202D303C
:101A20008A016F2041308A016F2062308A016F2065
:101A30006F308A016F2075308A016F2074308A01FF
:101A40006F202D308A016F20FE308A016F20C03058
:101A50008A016F2048308A016F206F308A016F2021
:101A600062308A016F2062308A016F2079308A01EA
:101A70006F2062308A016F206F308A016F207430CE
:101A80008A016F2069308A016F2063308A016F20DC
:101A900073308A016F20FE308A016F2094308A01F2
:101AA0006F2052308A016F2065308A016F206630C6
:101AB0008A016F206C308A016F206F308A016F209D
:101AC00077308A016F2020308A016F2043308A01ED
:101AD0006F206F308A016F206E308A016F20743062
:101AE0008A016F2072308A016F206F308A016F2067
:101AF0006C308A016F206C308A016F2065308A015A
:101B00006F2072308A016F20FE308A016F20D4303E
:101B10008A016F2056308A016F2038308A016F2089
:101B20002E308A016F2030308A016F2033308A01D5
:101B30006F2020308A016F2020308A016F204630CC
:101B40008A016F2069308A016F2072308A016F200C
:101B50006D308A016F2077308A016F2061308A01F1
:101B60006F2072308A016F2065308A016F2020302B
:101B70008A016F2035308A016F2046308A016F203C
:101B80008A150A163A240800E201E301FF30E0005A
:101B9000E10183163008A200A3014730BD00FE30EA
:101BA00083128A016F2001308A016F202D308A0153
:101BB0006F2050308A016F2052308A016F204F30E1
:101BC0008A016F2050308A016F204F308A016F20C8
:101BD00052308A016F2054308A016F2049308A01C7
:101BE0006F204F308A016F204E308A016F204130C4
:101BF0008A016F204C308A016F202D308A016F20BE
:101C00008A150A12D4268A110A16C4238A150A12C2
:101C1000D52783162208B00083120800E201E301F1
:101C2000FF30E000E10183162F08A200A301473036
:101C3000BD00FE3083128A016F2001308A016F20BF
:101C40002D308A016F2049308A016F204E308A0181
:101C50006F2054308A016F2045308A016F20473051
:101C60008A016F2052308A016F2041308A016F2033
:101C70004C308A016F202D308A016F208A150A129C
:101C8000D4268A110A16C4238A150A12D527831668
:101C90002208AF0083120800E201E301FF30E000F8
:101CA000E10183162E08A200A3014730BD00FE30DB
:101CB00083128A016F2001308A016F202D308A0142
:101CC0006F2044308A016F2045308A016F205230E6
:101CD0008A016F2049308A016F2056308A016F20B7
:101CE00041308A016F2054308A016F2049308A01C7
:101CF0006F2056308A016F2045308A016F202D30C9
:101D00008A016F208A150A12D4268A110A16C42362
:101D10008A150A12D52783162208AE0083120800FE
:101D2000E201E3010A30E000E10183162808A20085
:101D3000A3014730BD00FE3083128A016F200130BD
:101D40008A016F202D308A016F2043308A016F2075
:101D500059308A016F2043308A016F204C308A014C
:101D60006F2045308A016F2020308A016F20543067
:101D70008A016F2049308A016F204D308A016F201F
:101D800045308A016F202D308A016F208A150A1292
:101D9000D4268A110A16C4238A150A12D527831657
:101DA0002208A80083120800FE308A016F20C0308C
:101DB0008A016F2056308A016F2061308A016F20BE
:101DC0006C308A016F2075308A016F2065308A017E
:101DD0006F203A308A016F2020308A016F20043052
:101DE000A900831622088312A400831623088312F5
:101DF000A5006E30B000B1018A01BE20FE308A011C
:101E00006F2094308A016F204D308A016F20693035
:101E10008A016F206E308A016F203A308A016F206C
:101E200020308A016F20A9016208A4006308A50080
:101E30006E30B000B1018A01BE2020308A016F20CF
:101E40004D308A016F2061308A016F2078308A011D
:101E50006F203A308A016F2020308A016F20A9015B
:101E60006008A4006108A5006E30B000B1018A01CD
:101E7000BE20FE308A016F20D4308A016F205B3093
:101E80008A016F2001308A016F205D308A016F2046
:101E900020308A016F2020308A016F205B308A0158
:101EA0006F2002308A016F205D308A016F20203060
:101EB0008A016F2020308A016F205B308A016F20F9
:101EC00003308A016F205D308A016F2008006400B2
:101ED0008A150A12091DCF2F64008A150A120918E3
:101EE000842F64008A150A120918792F8A150A129C
:101EF000712F32308A01802164008A150A12091C70
:101F0000842F8A110A167C2064008A150A12891807
:101F10009C2F64008A150A128918912F8A150A12BB
:101F2000892F32308A01802164008A150A12891CA7
:101F30009C2F8A110A164E2164008A150A128718EE
:101F4000B42F64008A150A128718A92F8A150A125D
:101F5000A12F32308A01802164008A150A12871C61
:101F6000B42F8A110A16202264008A150A12071853
:101F7000CC2F64008A150A120718C12F8A150A127D
:101F8000B92F32308A01802164008A150A12071C99
:101F9000CC2F8A110A16F2228A150A12672F0130F5
:101FA000A3002C308A018121080064008A110A16DE
:101FB000091D6C2864008A110A160918202864007B
:101FC0008A150A120918E72F8A150A12DF2F3230F4
:101FD0008A018021831622088312A0008316230819
:101FE0008312A1006108A30060088A01C4218A113C
:101FF0000A16031D062860088316A20083126108D2
:102000008316A30083128A110A160B288316A20ACC
:102010000319A30A83128A110A16C4230430A900E3
:10202000831622088312A400831623088312A500B6
:102030006E30B000B1018A01BE208A110A16C42395
:1020400064008A110A168918692864008A110A1620
:1020500089182D288A110A16252832308A018021F4
:10206000831622088312A000831623088312A1007E
:102070006308A30062088A01BB218A110A16031DA6
:102080004C2862088316A200831263088316A300FB
:1020900083128A110A16542801308316A2020030D6
:1020A000031C013EA30283128A110A16C4230430C2
:1020B000A900831622088312A40083162308831222
:1020C000A5006E30B000B1018A01BE208A110A1647
:1020D000C4238A150A12D52F83165F30BD008312E0
:1020E0008A110A16C4230130A3002C308A018121F1
:1020F0008A150A163A240800640083163308013C46
:102100008A110A16831203190C29640083163D08EC
:10211000413C8A110A168312031D9B2883165F30E7
:10212000BD000630AD0083128A110A16C4230800D0
:102130008A110A160929640083163D085F3C8A113A
:102140000A168312031DB12883161F30BD00043008
:10215000AD0083128A110A16C42308008A110A16D8
:102160000929640083163D081F3C8A110A16831250
:10217000031DC72883164B30BD000230AD0083120B
:102180008A110A16C42308008A110A160929640054
:1021900083163D084B3C8A110A168312031DDD2865
:1021A00083165530BD000530AD0083128A110A1622
:1021B000C42308008A110A160929640083163D0801
:1021C000553C8A110A168312031DF3288316153015
:1021D000BD000330AD0083128A110A16C423080023
:1021E0008A110A160929640083163D08153C8A11D4
:1021F0000A168312031D092983164130BD000130E0
:10220000AD0083128A110A16C42308008A110A1627
:1022100009298A110A164E29640083163D08413C9B
:102220008A110A168312031D222983165530BD0018
:102230000330AD0083128A110A16C42308008A11E4
:102240000A164E29640083163D08553C8A110A1669
:102250008312031D382983161530BD000230AD00EE
:1022600083128A110A16C42308008A110A164E29FD
:10227000640083163D08153C8A110A168312031D5B
:102280004E2983164130BD000130AD0083128A1102
:102290000A16C42308008A110A164E296400831600
:1022A0003308013C8A110A1683120319DE296400DF
:1022B00083163D08413C8A110A168312031D6D29BD
:1022C00083161530BD000330AD0083128A110A1643
:1022D000C42308008A110A16DB29640083163D080E
:1022E000153C8A110A168312031D83298316553063
:1022F000BD000530AD0083128A110A16C423080000
:102300008A110A16DB29640083163D08553C8A11A0
:102310000A168312031D992983164B30BD00023023
:10232000AD0083128A110A16C42308008A110A1606
:10233000DB29640083163D084B3C8A110A16831280
:10234000031DAF2983161F30BD000430AD0083127A
:102350008A110A16C42308008A110A16DB296400B0
:1023600083163D081F3C8A110A168312031DC529D6
:1023700083165F30BD000630AD0083128A110A1645
:10238000C42308008A110A16DB29640083163D085D
:102390005F3C8A110A168312031DDB298316413024
:1023A000BD000130AD0083128A110A16C423080053
:1023B0008A110A16DB298A110A16202A640083165C
:1023C0003D08413C8A110A168312031DF429831625
:1023D0001530BD000230AD0083128A110A16C423E5
:1023E00008008A110A16202A640083163D08153C4D
:1023F0008A110A168312031D0A2A83165530BD005E
:102400000330AD0083128A110A16C42308008A1112
:102410000A16202A640083163D08553C8A110A16C4
:102420008312031D202A83164130BD000130AD0008
:1024300083128A110A16C42308008A110A16202A58
:10244000640083163308013C8A110A1683120319AB
:10245000B02A640083163D08413C8A110A16831293
:10246000031D3F2A83164B30BD000230AD0083129E
:102470008A110A16C42308008A110A16AD2A6400BC
:1024800083163D084B3C8A110A168312031D552AF8
:1024900083161530BD000330AD0083128A110A1671
:1024A000C42308008A110A16AD2A640083163D0869
:1024B000153C8A110A168312031D6B2A83161F30DE
:1024C000BD000430AD0083128A110A16C42308002F
:1024D0008A110A16AD2A640083163D081F3C8A1132
:1024E0000A168312031D812A83165530BD0005305C
:1024F000AD0083128A110A16C42308008A110A1635
:10250000AD2A640083163D08553C8A110A168312D1
:10251000031D972A83165F30BD000630AD0083127D
:102520008A110A16C42308008A110A16AD2A64000B
:1025300083163D085F3C8A110A168312031DAD2ADB
:1025400083164130BD000130AD0083128A110A1696
:10255000C42308008A110A16AD2A8A110A16F22A23
:10256000640083163D08413C8A110A168312031D3C
:10257000C62A83161530BD000230AD0083128A11C1
:102580000A16C42308008A110A16F22A6400831668
:102590003D08153C8A110A168312031DDC2A831696
:1025A0005530BD000330AD0083128A110A16C423D2
:1025B00008008A110A16F22A640083163D08553C69
:1025C0008A110A168312031DF22A83164130BD00B8
:1025D0000130AD0083128A110A16C42308008A1143
:1025E0000A16F22A640083163308013C8A110A167F
:1025F00083120319822B640083163D08413C8A1123
:102600000A168312031D112B83165F30BD0006309E
:10261000AD0083128A110A16C42308008A110A1613
:102620007F2B640083163D085F3C8A110A168312D3
:10263000031D272B83165530BD000530AD008312D6
:102640008A110A16C42308008A110A167F2B640017
:1026500083163D08553C8A110A168312031D3D2B33
:1026600083161F30BD000430AD0083128A110A1694
:10267000C42308008A110A167F2B640083163D08C4
:102680001F3C8A110A168312031D532B8316153023
:10269000BD000330AD0083128A110A16C42308005E
:1026A0008A110A167F2B640083163D08153C8A1197
:1026B0000A168312031D692B83164B30BD000230AE
:1026C000AD0083128A110A16C42308008A110A1663
:1026D0007F2B640083163D084B3C8A110A16831237
:1026E000031D7F2B83164130BD000130AD008312E6
:1026F0008A110A16C42308008A110A167F2B8A1130
:102700000A16C42B640083163D08413C8A110A1640
:102710008312031D982B83165530BD000330AD0086
:1027200083128A110A16C42308008A110A16C42BC0
:10273000640083163D08553C8A110A168312031D56
:10274000AE2B83161530BD000230AD0083128A1106
:102750000A16C42308008A110A16C42B64008316C3
:102760003D08153C8A110A168312031DC42B8316DB
:102770004130BD000130AD0083128A110A16C42316
:1027800008008A110A16C42BFE308A016F2080309F
:1027900083163D078312FD00FE01FE0D7D088A01B0
:1027A0006F2008008316AD01831264000530831684
:1027B0002D028A110A1683120318142C871283160D
:1027C000871207308312BB001030B9000730BC00FD
:1027D0000830BA00B60110308A01ED20D20021087D
:1027E000D30087168316871283125208A00053085D
:1027F000A10005308A01AF21FD002108FE008316EB
:1028000003102D0D3E3E840083127D088000840A53
:102810007E088000B3308A0180218316AD0A8A11B8
:102820000A168312031DD52BD201D3018316AD01E5
:1028300083126400053083162D028A110A16831252
:1028400003183A2C831603102D0D3E3E840083128C
:102850000008FD00840A0008FE007D08D2077E08FB
:102860000318013ED3078316AD0A8A110A16831294
:10287000031D192C5208A0005308A1000530A20026
:10288000A3018A01E021D2002108D3000800FE3014
:102890008A016F20C0308A016F2054308A016F2076
:1028A00065308A016F206D308A016F2070308A0197
:1028B0006F2065308A016F2072308A016F2061308D
:1028C0008A016F2074308A016F2075308A016F2071
:1028D00072308A016F2065308A016F203A308A0198
:1028E0006F2020308A016F200330A9005208A40015
:1028F0005308A5006E30B000B1018A01BE2000303F
:102900008A016F2043308A016F20FE308A016F20D8
:1029100094308A016F2053308A016F2065308A011C
:102920006F2074308A016F2070308A016F206F3001
:102930008A016F2069308A016F206E308A016F2012
:1029400074308A016F203A308A016F2020308A016A
:102950006F200330A9007B08A4007C08A5006E301E
:10296000B000B1018A01BE2000308A016F204330DF
:102970008A016F20A001A1015908A30058088A010B
:10298000C7218A110A16031DE62CFE308A016F202A
:10299000D4308A016F2053308A016F2065308A015C
:1029A0006F2063308A016F203A308A016F20203017
:1029B0008A016F204E308A016F202F308A016F20EC
:1029C00041308A016F208A110A16062DFE308A01D5
:1029D0006F20D4308A016F2053308A016F20653018
:1029E0008A016F2063308A016F203A308A016F209C
:1029F00020308A016F200430A9005808A40059082B
:102A0000A5006E30B000B1018A01BE2064008316BB
:102A10004908013C8A110A168312031D122D8A11DE
:102A20000A16132508008316270883128A016820D6
:102A300052088A0168207B088A01682000308619C4
:102A400001308A0168200030061A01308A016820AE
:102A500059088A01682058088A01682083164908A5
:102A600083128A01682083162C0883128A01682049
:102A70008316350883128A0168208316460883125C
:102A80008A0168208316300883128A016820831621
:102A90002F0883128A01682083162E0883128A0168
:102AA00068208316280883128A01682066088A0134
:102AB00068205C088A01682056088A01682064083A
:102AC0008A0168200800FE308A016F2001308A01E7
:102AD0006F202D308A016F2053308A016F204530DE
:102AE0008A016F204E308A016F2053308A016F2097
:102AF0004F308A016F2052308A016F2020308A01C6
:102B00006F2054308A016F2045308A016F20533086
:102B10008A016F2054308A016F202D308A016F2086
:102B200020308A016F20FE308A016F20C0308A0178
:102B30006F2054308A016F2065308A016F206D301C
:102B40008A016F2070308A016F2065308A016F2002
:102B500072308A016F2061308A016F2074308A01DF
:102B60006F2075308A016F2072308A016F206530C6
:102B70008A016F203A308A016F2020308A016F204D
:102B8000FE308A016F2094308A016F205B308A0109
:102B90006F2003308A016F205D308A016F20FE3084
:102BA0008A016F200D308A016F2064008A110A1695
:102BB000091D022E8A110A16D22383164D30BD003C
:102BC00083128A110A16C4230330A9005208A400F4
:102BD0005308A5006E30B000B1018A01BE2000305C
:102BE0008A016F2043308A016F2083161530BD00A3
:102BF00083128A110A16C4238A110A1613258A1110
:102C00000A16D52D0330A300E8308A01812108007F
:102C100083160130A70047088312FB00FC01D8018E
:102C2000D90183160130C900FE3083128A016F205A
:102C300001308A016F202D308A016F2050308A01C7
:102C40006F2052308A016F2045308A016F20483052
:102C50008A016F2045308A016F2041308A016F2040
:102C600054308A016F2020308A016F2050308A0151
:102C70006F2048308A016F2041308A016F20533025
:102C80008A016F2045308A016F202D308A016F2024
:102C90008A110A16D2235208A0005308A100A301EA
:102CA0003C308A01BF218A110A16031D5A2E8A114F
:102CB0000A162F2F83160130BC000130BB0083128F
:102CC0008A150A16482483160230BC000130BB0066
:102CD00083128A150A1648248A150A16ED208316CF
:102CE0000230A70047088312FB00FC018316480846
:102CF0008312D800D901FE308A016F2001308A0189
:102D00006F202D308A016F2053308A016F204F30A1
:102D10008A016F2041308A016F204B308A016F2079
:102D200020308A016F2050308A016F2048308A019C
:102D30006F2041308A016F2053308A016F20453067
:102D40008A016F202D308A016F208A150A165920BA
:102D500083160130BC000130BB0083128A150A16AD
:102D6000482483160330A7003E088312FB00FC01B1
:102D7000D801D901FE308A016F2001308A016F200D
:102D80002D308A016F2048308A016F2045308A013A
:102D90006F2041308A016F2054308A016F20493002
:102DA0008A016F204E308A016F2047308A016F20E0
:102DB00020308A016F2050308A016F2048308A010C
:102DC0006F2041308A016F2053308A016F204530D7
:102DD0008A016F202D308A016F208A150A16ED2096
:102DE00083160430A7003E088312FB00FC01831603
:102DF0003F088312D800D901FE308A016F200130CC
:102E00008A016F202D308A016F2052308A016F2095
:102E100045308A016F2046308A016F204C308A018C
:102E20006F204F308A016F2057308A016F20203089
:102E30008A016F2050308A016F2048308A016F204C
:102E400041308A016F2053308A016F2045308A015A
:102E50006F202D308A016F208A150A16592083169B
:102E60000530A70025088312FB00FC018316260805
:102E70008312D800D90183160130BC00BB01831234
:102E80008A150A1648248A150A16922583160230D6
:102E9000BC000130BB0083128A150A164824FE309C
:102EA0008A016F2001308A016F202D308A016F2046
:102EB00043308A016F204F308A016F204F308A01E2
:102EC0006F204C308A016F2044308A016F204F30D0
:102ED0008A016F2057308A016F204E308A016F209F
:102EE0002D308A016F205208A0005308A1007C08F1
:102EF000A3007B088A01BF218A110A16031D892FAE
:102F00008A110A16D2238A110A1647248A110A1630
:102F1000732F8A0111238A01132383160230BC0008
:102F2000BB0183128A150A1648248316C90183122D
:102F30008A150A1692258316A7018312FB01FC014C
:102F4000D801D9018A110A161325FE308A016F2093
:102F500001308A016F20FE308A016F200D308A0116
:102F60006F204F308A016F2070308A016F206530EA
:102F70008A016F2072308A016F2061308A016F20D0
:102F800074308A016F2069308A016F206F308A01A6
:102F90006F206E308A016F2020308A016F206330ED
:102FA0008A016F206F308A016F206D308A016F2097
:102FB00070308A016F206C308A016F2065308A0181
:102FC0006F2074308A016F2065308A016F20643071
:102FD0008A016F202E308A016F20FE308A016F2017
:102FE000C0308A016F205B308A016F2003308A0174
:102FF0006F205D308A016F2083164130BD0083123F
:103000008A110A16C4238A150A163A248A01812BCA
:1030100083160630A70083127F08FB00FC015008CE
:10302000D8005108D90083160130BC000130BB0024
:1030300083128A150A16482483160230BC00013018
:10304000BB0083128A150A16482483160130C90072
:10305000FE3083128A016F2001308A016F202D30EB
:103060008A016F2042308A016F2041308A016F202F
:103070004B308A016F2045308A016F2020308A0151
:103080006F2050308A016F2048308A016F20413014
:103090008A016F2053308A016F2045308A016F20EA
:1030A0002D308A016F208A150A1659208A110A16B6
:1030B0002F2F8A110A16D2238A150A165921580869
:1030C000A0005908A100A30100308A01B4218A158B
:1030D0000A16031DEC2864008A150A16831683104D
:1030E0003A1E831483128318E9280130D802003075
:1030F000031C013ED9028A110A16D2238A150A1628
:103100005921831628088312A600A7016408A2008B
:103110006508A3008A01FC21FD002508FE007D084A
:10312000A0007E08A1006430A200A3018A01E02172
:103130008316CB00CC0A640038084C028A150A16A4
:103140008312031CA72883163908CC008312831628
:103150004C088312A00083164B0883128A01C221F7
:10316000FD005208A0005308A1007C08A3007B08C2
:103170008A01C4218316A00083127D08840083166F
:10318000200883128A01D9218316A000A1006400BF
:10319000200821048A150A1683120319DB288316D6
:1031A0000130BC000130BB0083128A150A16482486
:1031B0008A150A16E32883160130BC00BB0183126E
:1031C0008A150A1648248A110A16472483163A12C9
:1031D00083128A150A165F2808008A010D235208F7
:1031E000A0005308A1007C08A3007B088A01B82135
:1031F0008A150A16031D582964008A150A168316B3
:1032000083103A1E83148312831855298A110A16D3
:10321000D2238A150A165921831628088312A6007C
:10322000A7016408A2006508A3008A01FC21FD0033
:103230002508FE007D08A0007E08A1006430A200E1
:10324000A3018A01E0218316CB00CC0A6400380870
:103250004C028A150A168312031C32298316390878
:10326000CC008312640083164B084C028A150A16A0
:1032700083120318472983160130BC000130BB00BC
:1032800083128A150A1648248A150A164F298316AE
:103290000130BC00BB0183128A150A1648248A112A
:1032A0000A16472483163A1283128A150A16EF2843
:1032B000080052087B02DA005308031C013E7C021E
:1032C000DB00831630088312A600A7015A08A2006B
:1032D0005B08A3008A01FC21E6002508E7008316AD
:1032E0002F088312A600A7015A08A2005B08A300BA
:1032F0008A01FC21FD002508FE007D08DC077E0810
:103300000318013EDD075C08A0005D08A1008316DC
:10331000380883128A01BE218A150A16031D9529D1
:10332000831638088312DC00DD015C08A0005D080C
:10333000A1008316390883128A01B7218A150A165B
:10334000031DA729831639088312DC00DD015E08FE
:103350005202D6005F08031C013E5302D7008316B9
:103360002E088312A600A7015608A2005708A30042
:103370008A01FC21FD002508FE007D085C02FD009D
:103380007E08031C013E5D02FE0066087D07E40026
:1033900067080318013E7E07E5005208DE00530867
:1033A000DF000800FE308A016F2001308A016F20A3
:1033B00050308A016F2043308A016F2020308A010B
:1033C0006F2043308A016F206F308A016F206E308A
:1033D0008A016F2074308A016F2072308A016F2059
:1033E0006F308A016F206C308A016F202E308A0185
:1033F0006F202E308A016F202E308A016F208A01C3
:103400006220FE3C8A150A16031DFF298A016220EC
:103410008316A40064002408003C8A150A1683124F
:10342000031D1B2A8A150A1673238A150A16DE2223
:103430008A150A16902A640083162408013C8A150E
:103440000A168312031D2A2A8A110A16082E8A15C3
:103450000A16902A640083162408023C8A150A166C
:103460008312031D392A8A150A1608288A150A1696
:10347000902A640083162408033C8A150A168312D6
:10348000031D4B2A8A150A16E3238A150A164E23B2
:103490008A150A16902A640083162408043C8A15AB
:1034A0000A168312031D5A2A8A110A1663258A15E1
:1034B0000A16902A640083162408053C8A150A1609
:1034C0008312031D682A8A01812B8A150A16902A05
:1034D000640083162408063C8A150A168312031D0D
:1034E000812A8A0162208316BC0083128A0162202D
:1034F0008316BB0083128A150A1648248A150A16F9
:10350000902A640083162408073C8A150A16831241
:10351000031D902A8A110A1613258A150A16902A65
:103520008A150A16D22903178D0103138A01662111
:103530008316C7008312031701308D0003138A011D
:1035400066218316C8008312031702308D0003130F
:103550008A0166218316BE008312031703308D0093
:1035600003138A0166218316BF00831203170430F8
:103570008D0003138A016621FF00031705308D00BB
:1035800003138A016621D000031706308D00031350
:103590008A016621D100031707308D0003138A01C9
:1035A00066218316A5008312031708308D000313CC
:1035B0008A0166218316A6008312080003178D0175
:1035C00083160313470883128A0170210317013001
:1035D0008D0083160313480883128A017021031794
:1035E00002308D00831603133E0883128A01702176
:1035F000031703308D00831603133F0883128A01DB
:103600007021031704308D0003137F088A01702195
:10361000031705308D00031350088A01702103172A
:1036200006308D00031351088A01702103170730FB
:103630008D0083160313250883128A017021031756
:1036400008308D0083160313260883128A01702127
:103650000800031709308D0003138A0166218316C1
:10366000B000831203170A308D0003138A0166210C
:103670008316AF00831203170B308D0003138A01EA
:1036800066218316AE00831203170C308D000313DE
:103690008A0166218316A8008312080003170930E7
:1036A0008D0083160313300883128A0170210317DB
:1036B0000A308D00831603132F0883128A017021AC
:1036C00003170B308D00831603132E0883128A0113
:1036D000702103170C308D00831603132808831202
:1036E0008A0170210800FE308A016F2001308A01B2
:1036F0006F2052308A016F2065308A016F2063305D
:103700008A016F2065308A016F2069308A016F203D
:1037100076308A016F2069308A016F206E308A010D
:103720006F2067308A016F2020308A016F2075304A
:103730008A016F2070308A016F2064308A016F2007
:1037400061308A016F2074308A016F2065308A01F0
:103750006F2073308A016F202E308A016F202E3047
:103760008A016F202E308A016F208A016220831621
:10377000C70083128A0162208316C80083128A015F
:1037800062208316BE0083128A0162208316BF0066
:1037900083128A016220FF008A016220D0008A0120
:1037A0006220D1005008A600A7016430A200A30146
:1037B0008A01FC21FD002508FE0051087D04D0008F
:1037C0007E08D1000800FE308A016F2001308A0196
:1037D0006F2052308A016F2065308A016F2063307C
:1037E0008A016F2065308A016F2069308A016F205D
:1037F00076308A016F2069308A016F206E308A012D
:103800006F2067308A016F2020308A016F20753069
:103810008A016F2070308A016F2064308A016F2026
:1038200061308A016F2074308A016F2065308A010F
:103830006F2073308A016F202E308A016F202E3066
:103840008A016F202E308A016F208A016220831640
:10385000B00083128A0162208316AF0083128A01AE
:1038600062208316AE0083128A0162208316A800AC
:103870008312080064008A150A16091D422C8A1555
:103880000A163A2C0130A3002C308A01812108004D
:10389000640083163B08003C8A150A168312031D38
:1038A000AD2C640083163C08013C8A150A1683126D
:1038B000031D652C8611831686118312051083164D
:1038C000051083128A150A16AD2C640083163C0875
:1038D000023C8A150A168312031D792C06128316E0
:1038E0000612831285108316851083128A150A1614
:1038F000AD2C640083163C08033C8A150A1683121B
:10390000031D8D2C861283168612831205118316D1
:10391000051183128A150A16AD2C640083163C0823
:10392000043C8A150A168312031D9D2C051283166A
:10393000051283128A150A16AD2C640083163C0802
:10394000053C8A150A168312031DAD2C85128316B9
:10395000851283128A150A16AD2C640083163B0863
:10396000013C8A150A168312031D122D640083166A
:103970003C08013C8A150A168312031DCA2C8615C1
:1039800083168611831205148316051083128A1577
:103990000A16122D640083163C08023C8A150A168A
:1039A0008312031DDE2C061683160612831285145D
:1039B0008316851083128A150A16122D6400831649
:1039C0003C08033C8A150A168312031DF22C861646
:1039D00083168612831205158316051183128A1524
:1039E0000A16122D640083163C08043C8A150A1638
:1039F0008312031D022D05168316051283128A15E4
:103A00000A16122D640083163C08053C8A150A1616
:103A10008312031D122D85168316851283128A15B3
:103A20000A16122D0800FE308A016F2040308A01EC
:103A30006F2008308A016F2014308A016F2008300F
:103A40008A016F2000308A016F2000308A016F20C8
:103A500000308A016F2000308A016F2000308A0117
:103A60006F20FE308A016F2048308A016F200430B9
:103A70008A016F200E308A016F201F308A016F206B
:103A800004308A016F2004308A016F2004308A01DB
:103A90006F2004308A016F2000308A016F20FE30D1
:103AA0008A016F2050308A016F2004308A016F2014
:103AB00004308A016F2004308A016F2004308A01AB
:103AC0006F201F308A016F200E308A016F20043072
:103AD0008A016F2000308A016F20FE308A016F203A
:103AE00058308A016F2000308A016F2001308A012E
:103AF0006F2005308A016F200D308A016F201F3042
:103B00008A016F200C308A016F2004308A016F20F7
:103B100000308A016F20FE308A016F2001308A0157
:103B20006F2008000830BB000130B9006430A200EB
:103B30000A308A011D217F30A2000A308A011D212E
:103B400064308A0180210830BB000130B900643044
:103B5000A2000A308A011D217F30A2000A308A01AA
:043B60001D2108001B
:02400E00363F3B
:10420000AA005A00DC001E00500020001C003C00E8
:0A42100000000B000500010005008E
:00000001FF
