:020000040000FA
:04000000B4011B2A02
:08000800F000030E8301BD00AE
:100010000A08B80003308A00482BA9004030A0002D
:100020004B30A1004C30A400A501E121AA01210818
:10003000031921282A145D20FC3E031C2128AA1440
:100040005D202003AB00280F2928FF30A400A50065
:1000500034282808A500A401A600A7012B0A03192B
:100060003428A200A301FB21A90B4D281708CF3982
:10007000A41B2038241B10380C3897002508950045
:100080008316071183122B0883169200831212081D
:10009000FC392A0404389200162AA90B5C281D0892
:1000A000CF39A41B2038241B10380C389D0025089C
:1000B0009B00831687104228162AA10CA00CA10CC5
:1000C000A00C080064008C1E62281A080314162A6B
:1000D00064000C1E682899000314162A0408A7005F
:1000E00088118810081183168811881008110F30A4
:1000F000880583122708B4189A283A30A100FC30EA
:100100008D213330A600AE201030A10068308D2143
:10011000AE2064308C212230A600AE2028309920F9
:100120000C3099200130992006309920B41427080A
:100130009A283414A600341CA8288810033C031CF9
:10014000AD28AD200730A100D0308D210314080068
:100150003414FE3C0319162A8814341C34108815F4
:100160000F3088052608F03988048811A60E341847
:10017000AE2832308C2103140800B6132908031965
:10018000B6170530A8002730A3001030D320033065
:10019000A300E830D320A3016430D320A3010A30A8
:1001A000D3202408DA28A2002508A1002408A000F2
:1001B000DF212008A000A8030319B613290803199A
:1001C000E4282802031808002008031DB613B61BF4
:1001D0000800303E112A0830A600A7003C08840021
:1001E0003A0836194D21361D4F213B0884008417EB
:1001F00039088004A001A10126080319162AB6189F
:1002000011213B08840000083905FF3EA00DA10D17
:10021000B61C1121A60BFF28270836189C29200898
:10022000162A3C0884003A0880060000172918297D
:1002300019291A2980060800A3003B0884008417A6
:10024000390980058413A3080319162AF030A50084
:1002500022088038A400F030A5030319A500031973
:10026000A3030319162A2008A6002108A700273097
:100270008C212608A0002708A10056210301201880
:100280003908A21F3908A20803190301A40F4A293B
:10029000800628294B2900002B2980045229FF3A87
:1002A00080055329FF3A84178005162A2108200467
:1002B0000319A00A8030201AA1062019A106A0184F
:1002C000A106210DA00DA10D162A031783168C017E
:1002D0000C1483120C0803178D0A162A0301031746
:1002E0008C0083168C010C1555308D00AA308D00C2
:1002F0008C148C1879290C1183128D0A162AA301EB
:10030000A200FF30A207031CA307031C162A033018
:10031000A100E6308D218129A101FC3EA000A109A8
:10032000031C9829FF300000A00703189329A00799
:100330006400A10F92290800A201A301A329A10C26
:10034000A00CA20DA30DFF3E03189F292308A100B6
:100350002208A000162A0310A10CA00CFF3E0318CF
:10036000AB292008162AA2000230C829A301A20046
:100370000330C829A2000130C829A301A200063019
:10038000C829A101A301A2000430C829A200053098
:10039000A80023082102031DCF29220820020430CF
:1003A00003180130031902302805031DFF30162AF7
:1003B0000038031DFF300405031DFF30162AA50178
:1003C000A4011030A600210DA40DA50D2208A40241
:1003D0002308031C230FA5020318F5292208A407EC
:1003E00023080318230FA5070310A00DA10DA60BCA
:1003F000E3292008162A1030A800A101A001A70CAB
:10040000A60C031C092A2208A00723080318230F9F
:10041000A107A10CA00CA50CA40CA80BFF29240873
:10042000162A840031088A003008820083130313DF
:100430008312640008008316203099002030980051
:100440008312903098008A110A12BF2A2008E8000F
:100450002108E9002208EA002308EB002408EC0048
:100460002508ED002608EE002708EF002808F10017
:100470002908F2002A08F3002B08F4002C08F500E4
:100480002D08F6002E08F7002F08F8003008F900B4
:100490003108FA0034088316AA008312360883163E
:1004A000AB00831239088316C00083123A08831602
:1004B000C10083123B088316C20083123C088316D6
:1004C000C30083127D08C8007E08C9008316200877
:1004D0008312CA00831621088312CB00B714330895
:1004E0008A00320882006808A0006908A1006A0832
:1004F000A2006B08A3006C08A4006D08A5006E089C
:10050000A6006F08A7007108A8007208A900730868
:10051000AA007408AB007508AC007608AD00770837
:10052000AE007808AF007908B0007A08B1008316F1
:100530002A088312B40083162B088312B600831690
:1005400040088312B900831641088312BA0083164B
:1005500042088312BB00831643088312BC0048087C
:10056000FD004908FE004A088316A00083124B08CC
:100570008316A1008312B7108A110A12662B831604
:100580003A16BA1583128A110A123D2B1010B73091
:100590008E0703188F0A3C308F0710148316CA0A7F
:1005A00064004A08643C8A110A128312031D082B56
:1005B00064308316CA02C60A3A16640046083C3CF8
:1005C0008A110A128312031DEA2A8316B50ABA1584
:1005D000C60183126400831635083C3C8A110A1256
:1005E0008312031DF82A8316AC0A3A15B50183124B
:1005F000640083162C08183C8A110A128312031D0A
:10060000082BD40A0319D50A8316BA14AC01831235
:1006100033088A00320882009010901110140800EC
:1006200010100800831010188314831683183A14CE
:10063000831C3A10831210108E018F011010B730F6
:100640008E0703188F0A3C308F07831683103A18E1
:100650008314831283181014831C10108316CA018C
:10066000C601B501AC018312D401D50183163A1637
:10067000BA153A15BA1483120800831607309F0082
:1006800007309C00FF30860083128A110A12702BFB
:100690000408B500B71083160C1C602B83120C1CC9
:1006A000602BB718592B5930B2000330B3008A01C0
:1006B000262A5F30B2000330B3008A01C62A0C102C
:1006C00083120313B71C662B8A01732A8301350832
:1006D000840038088A003D0E8300F00E700E090079
:1006E0000B178B170C1083160C1483128A0112231C
:1006F0000330A300E8308A0180218A150A165125AB
:100700008316BD018312D201D301FB01FC018A15BE
:100710000A1667238316B4012808B200CC01CB0166
:100720003408B9003208B8008312E401E501E6019B
:10073000E701DC01DD01D601D701DA01DB01DE01D1
:10074000DF0183160130BC00BB0183128A150A1633
:10075000862483160230BC00BB0183128A150A1658
:10076000862483160330BC00BB0183128A150A1647
:1007700086248316FF30B100C901A70183128A15B0
:100780000A16D122831631088312A800FF30A20076
:100790007F30A30001308A010D2064008A110A1203
:1007A0008519D52B8A150A16102A83160130AD003B
:1007B0000230B300FE3083128A016F2001308A01BB
:1007C0006F20FE308A016F200D308A016F202D309E
:1007D0008A016F204D308A016F2045308A016F20D9
:1007E0004E308A016F2055308A016F202D308A01EA
:1007F0006F20FE308A016F20C0308A016F205B308D
:100800008A016F2031308A016F205D308A016F20AC
:1008100052308A016F2065308A016F2066308A016C
:100820006F206C308A016F206F308A016F20773023
:100830008A016F2020308A016F205B308A016F208F
:1008400032308A016F205D308A016F2042308A0188
:100850006F2061308A016F206B308A016F20653014
:100860008A016F20FE308A016F2094308A016F2048
:100870005B308A016F2033308A016F205D308A013E
:100880006F2053308A016F2065308A016F207430E9
:100890008A016F2075308A016F2070308A016F20C5
:1008A00020308A016F2020308A016F205B308A015E
:1008B0006F2034308A016F205D308A016F20543000
:1008C0008A016F2075308A016F206E308A016F2097
:1008D00065308A016F20FE308A016F20D4308A0192
:1008E0006F205B308A016F2035308A016F205D30C8
:1008F0008A016F2041308A016F2062308A016F20A7
:100900006F308A016F2075308A016F2074308A0140
:100910006F2020308A016F2020308A016F205B30E9
:100920008A016F2036308A016F205D308A016F2086
:1009300053308A016F2065308A016F206E308A0142
:100940006F2073308A016F206F308A016F20723000
:100950008A016F2083164130BD0083128A110A1666
:10096000C3238A150A126627640083162D08013CEA
:100970008A110A128312031DC32C8A110A16072E2C
:100980008A110A120E2D640083162D08023C8A116A
:100990000A128312031DD22C8A150A1607288A11FF
:1009A0000A120E2D640083162D08033C8A110A12C8
:1009B0008312031DE12C8A110A12102D8A110A12CA
:1009C0000E2D640083162D08043C8A110A1283122E
:1009D000031DF02C8A150A12D62B8A110A120E2D2D
:1009E000640083162D08053C8A110A128312031D28
:1009F000FF2C8A150A1202258A110A120E2D640094
:100A000083162D08063C8A110A128312031D0E2D2F
:100A10008A110A1662258A110A120E2D8A01D52B17
:100A200083160130AD000230B300FE3083128A011C
:100A30006F2001308A016F20FE308A016F200D3057
:100A40008A016F202D308A016F2045308A016F2086
:100A500044308A016F2049308A016F2054308A0166
:100A60006F2020308A016F2050308A016F20523071
:100A70008A016F204F308A016F2046308A016F2033
:100A800049308A016F204C308A016F2045308A013D
:100A90006F202D308A016F20FE308A016F20C03018
:100AA0008A016F205B308A016F2031308A016F200C
:100AB0005D308A016F2053308A016F206F308A01C8
:100AC0006F2061308A016F206B308A016F202030E7
:100AD0008A016F2020308A016F2020308A016F2028
:100AE0005B308A016F2032308A016F205D308A01CD
:100AF0006F2052308A016F2065308A016F20663086
:100B00008A016F206C308A016F206F308A016F205C
:100B100077308A016F20FE308A016F2094308A017D
:100B20006F205B308A016F2033308A016F205D3087
:100B30008A016F2042308A016F2061308A016F2064
:100B40006B308A016F2065308A016F2020308A0166
:100B50006F2020308A016F2020308A016F205B30A7
:100B60008A016F2034308A016F205D308A016F2046
:100B700043308A016F206F308A016F206F308A0105
:100B80006F206C308A016F20FE308A016F20D430D4
:100B90008A016F205B308A016F2035308A016F2017
:100BA0005D308A016F2053308A016F2061308A01E5
:100BB0006F2076308A016F2065308A016F202030E7
:100BC0008A016F2020308A016F2020308A016F2037
:100BD0005B308A016F2003308A016F205D308A010B
:100BE0006F2083164130BD0083128A110A16C32379
:100BF0008A150A126627640083162D08013C8A11A3
:100C00000A128312031D0A2E8A110A12562E8A1105
:100C10000A12542E640083162D08023C8A110A120F
:100C20008312031D192E8A110A12BE2E8A110A126E
:100C3000542E640083162D08033C8A110A12831275
:100C4000031D282E8A110A122C2F8A110A12542EE3
:100C5000640083162D08043C8A110A128312031DB6
:100C6000372E8A110A12942F8A110A12542E640008
:100C700083162D08053C8A110A128312031D462E85
:100C80008A150A161C238A110A12542E6400831630
:100C90002D08063C8A110A128312031D542E8A0164
:100CA000D52B8A110A12542E8A01102D8316013079
:100CB000AD000130B300FE3083128A016F20013095
:100CC0008A016F202D308A016F2045308A016F2004
:100CD00044308A016F2049308A016F2054308A01E4
:100CE0006F2020308A016F2053308A016F204F30EF
:100CF0008A016F2041308A016F204B308A016F20BA
:100D00002D308A016F208A150A120820831641307F
:100D1000BD0083128A110A16C3238A150A12662798
:100D2000640083162D08013C8A110A128312031DE8
:100D30009F2E8A150A1269208A110A12BC2E64009D
:100D400083162D08023C8A110A128312031DAE2E4F
:100D50008A150A12AB208A110A12BC2E640083166F
:100D60002D08033C8A110A128312031DBC2E8A012E
:100D7000102D8A110A12BC2E8A01562E83160130BC
:100D8000AD000130B300FE3083128A016F200130C4
:100D90008A016F202D308A016F2045308A016F2033
:100DA00044308A016F2049308A016F2054308A0113
:100DB0006F2020308A016F2052308A016F20453029
:100DC0008A016F2046308A016F204C308A016F20E3
:100DD0004F308A016F2057308A016F202D308A01F1
:100DE0006F208A150A12082083164130BD00831235
:100DF0008A110A16C3238A150A126627640083160D
:100E00002D08013C8A110A128312031D0D2F8A1529
:100E10000A12ED208A110A122A2F640083162D0867
:100E2000023C8A110A128312031D1C2F8A150A1212
:100E300035218A110A122A2F640083162D08033CDB
:100E40008A110A128312031D2A2F8A01102D8A117A
:100E50000A122A2F8A01BE2E83160130AD000130FE
:100E6000B300FE3083128A016F2001308A016F20A7
:100E70002D308A016F2045308A016F2044308A016D
:100E80006F2049308A016F2054308A016F20203052
:100E90008A016F2042308A016F2041308A016F2021
:100EA0004B308A016F2045308A016F202D308A0136
:100EB0006F208A150A12082083164130BD00831264
:100EC0008A110A16C3238A150A126627640083163C
:100ED0002D08013C8A110A128312031D752F8A15F1
:100EE0000A127D218A110A12922F640083162D089E
:100EF000023C8A110A128312031D842F8A150A12DA
:100F0000BF218A110A12922F640083162D08033C18
:100F10008A110A128312031D922F8A01102D8A1141
:100F20000A12922F8A012C2F83160130AD00013056
:100F3000B300FE3083128A016F2001308A016F20D6
:100F40002D308A016F2045308A016F2044308A019C
:100F50006F2049308A016F2054308A016F20203081
:100F60008A016F2043308A016F204F308A016F2041
:100F70004F308A016F204C308A016F2044308A0143
:100F80006F204F308A016F2057308A016F204E301A
:100F90008A016F202D308A016F208A150A120820DD
:100FA00083164130BD0083128A110A16C3238A15A5
:100FB0000A126627640083162D08013C8A110A1262
:100FC0008312031DE92F8A150A1209228A150A12B3
:100FD0000628640083162D08023C8A110A12831227
:100FE000031DF82F8A150A1257228A150A1206289D
:100FF000640083162D08033C8A150A128312031D10
:1010000006288A01102D8A150A1206288A01942FB3
:10101000FE308A016F20C0308A016F205B308A0168
:101020006F2031308A016F205D308A016F202030BF
:101030008A016F2054308A016F2065308A016F2049
:101040006D308A016F2070308A016F2065308A010F
:101050006F2072308A016F2061308A016F207430F6
:101060008A016F2075308A016F2072308A016F20EB
:1010700065308A016F20FE308A016F2094308A012A
:101080006F205B308A016F2032308A016F205D3023
:101090008A016F2020308A016F2054308A016F202E
:1010A00069308A016F206D308A016F2065308A01B6
:1010B0006F20FE308A016F20D4308A016F205B30B0
:1010C0008A016F2003308A016F205D308A016F2012
:1010D00008000A30E200E301E630E000E101831697
:1010E0004708A200A3014630BD00FE3083128A01EA
:1010F0006F2001308A016F202D308A016F2053301C
:101100008A016F204F308A016F2041308A016F20A1
:101110004B308A016F2020308A016F2054308A01C1
:101120006F2045308A016F204D308A016F2050308A
:101130008A016F202D308A016F208A150A12A4229D
:101140008A110A16C3238A150A12D4278316220885
:10115000C700831208000A30E200E301FA30E00021
:10116000E10183164808A200A3014630BD00FE300D
:1011700083128A016F2001308A016F202D308A018D
:101180006F2053308A016F204F308A016F20413029
:101190008A016F204B308A016F2020308A016F2036
:1011A00054308A016F2049308A016F204D308A0106
:1011B0006F2045308A016F202D308A016F208A15FB
:1011C0000A123A238A110A16C3238A150A12D4274F
:1011D00083162208C800831208000A30E200E301E7
:1011E000E630E000E10183163E08A200A30146308C
:1011F000BD00FE3083128A016F2001308A016F200A
:101200002D308A016F2052308A016F2045308A01CB
:101210006F2046308A016F204C308A016F204F309A
:101220008A016F2057308A016F2020308A016F2099
:1012300054308A016F2045308A016F204D308A0179
:101240006F2050308A016F202D308A016F208A155F
:101250000A12A4228A110A16C3238A150A12D42755
:1012600083162208BE00831208000130E200E30169
:101270003C30E000E10183163F08A200A3014630A4
:10128000BD00FE3083128A016F2001308A016F2079
:101290002D308A016F2052308A016F2045308A013B
:1012A0006F2046308A016F204C308A016F204F300A
:1012B0008A016F2057308A016F2020308A016F2009
:1012C00054308A016F2049308A016F204D308A01E5
:1012D0006F2045308A016F202D308A016F208A15DA
:1012E0000A123A238A110A16C3238A150A12D4272E
:1012F00083162208BF00831208000130E200E301D8
:10130000E630E000E1017F088316A200A301463029
:10131000BD00FE3083128A016F2001308A016F20E8
:101320002D308A016F2042308A016F2041308A01BE
:101330006F204B308A016F2045308A016F202030AA
:101340008A016F2054308A016F2045308A016F2056
:101350004D308A016F2050308A016F202D308A0174
:101360006F208A150A12A4228A110A16C3238A152D
:101370000A12D427831622088312FF0008000130C6
:10138000E200E3012030E0001C30E1005008831649
:10139000A200831251088316A3004630BD00FE3020
:1013A00083128A016F2001308A016F202D308A015B
:1013B0006F2042308A016F2041308A016F204B300C
:1013C0008A016F2045308A016F2020308A016F200A
:1013D00054308A016F2049308A016F204D308A01D4
:1013E0006F2045308A016F202D308A016F208A15C9
:1013F0000A123A238A110A16C3238A150A12D4271D
:10140000831622088312D000831623088312D1008A
:1014100008001B30E200E3013C30E000E1018316EC
:101420002508A200A3014630BD00FE3083128A01C8
:101430006F2001308A016F202D308A016F204330E8
:101440008A016F204F308A016F204F308A016F2050
:101450004C308A016F2044308A016F204F308A015E
:101460006F2057308A016F204E308A016F20203064
:101470008A016F2054308A016F2045308A016F2025
:101480004D308A016F2050308A016F202D308A0143
:101490006F208A150A12A4228A110A16C3238A15FC
:1014A0000A12D42783162208A50083120800E2013D
:1014B000E301FF30E000E10183162608A200A3014A
:1014C0004630BD00FE3083128A016F2001308A0150
:1014D0006F202D308A016F2043308A016F204F30FA
:1014E0008A016F204F308A016F204C308A016F20B3
:1014F00044308A016F204F308A016F2057308A01B3
:101500006F204E308A016F2020308A016F205430C6
:101510008A016F2049308A016F204D308A016F2087
:1015200045308A016F202D308A016F208A150A12FA
:101530003A238A110A16C3238A150A12D42783165E
:101540002208A60083120800FE308A016F20C030F6
:101550008A016F2054308A016F2065308A016F2024
:101560006D308A016F2070308A016F203A308A0115
:101570006F2020308A016F200430A90083162208D2
:101580008312A400831623088312A5006E30B000D6
:10159000B1018A01BD2000308A016F2043308A01E9
:1015A0006F20FE308A016F2094308A016F204D3009
:1015B0008A016F2069308A016F206E308A016F20A6
:1015C0003A308A016F2020308A016F20A901620819
:1015D000A4006308A5006E30B000B1018A01BD20EF
:1015E00020308A016F204D308A016F2061308A01DE
:1015F0006F2078308A016F203A308A016F202030C6
:101600008A016F20A9016008A4006108A5006E305E
:10161000B000B1018A01BD20FE308A016F20D430B4
:101620008A016F205B308A016F2001308A016F20B0
:101630005D308A016F2020308A016F2020308A01BE
:101640006F205B308A016F2002308A016F205D308D
:101650008A016F2020308A016F2020308A016F209C
:101660005B308A016F2003308A016F205D308A0170
:101670006F200800FE308A016F20C0308A016F2081
:1016800054308A016F2065308A016F206D308A01E5
:101690006F2070308A016F203A308A016F2020302D
:1016A0008A016F200430A900831622088312A40047
:1016B000831623088312A5006E30B000B1018A01A1
:1016C000BD2020308A016F2053308A016F206530A1
:1016D0008A016F2063308A016F20FE308A016F20FB
:1016E00094308A016F204D308A016F2069308A0161
:1016F0006F206E308A016F203A308A016F202030CF
:101700008A016F20A9016208A4006308A5006E3059
:10171000B000B1018A01BD2020308A016F204D3018
:101720008A016F2061308A016F2078308A016F2032
:101730003A308A016F2020308A016F20A9016008A9
:10174000A4006108A5006E30B000B1018A01BD207F
:10175000FE308A016F20D4308A016F205B308A010D
:101760006F2001308A016F205D308A016F202030A8
:101770008A016F2020308A016F205B308A016F2040
:1017800002308A016F205D308A016F2020308A018B
:101790006F2020308A016F205B308A016F20033078
:1017A0008A016F205D308A016F20080083160130A6
:1017B000AD000230B300FE3083128A016F20013089
:1017C0008A016F202D308A016F2054308A016F20EA
:1017D00055308A016F204E308A016F2045308A01D2
:1017E0006F2020308A016F2050308A016F204930ED
:1017F0008A016F2044308A016F202D308A016F20CA
:10180000FE308A016F20C0308A016F205B308A0170
:101810006F2031308A016F205D308A016F204B309C
:101820008A016F2070308A016F2020308A016F207A
:1018300020308A016F2020308A016F2020308A01F9
:101840006F2020308A016F205B308A016F20323098
:101850008A016F205D308A016F204B308A016F2032
:1018600069308A016F20FE308A016F2094308A012E
:101870006F205B308A016F2033308A016F205D302A
:101880008A016F204B308A016F2064308A016F20FB
:1018900020308A016F2020308A016F2020308A0199
:1018A0006F2020308A016F2020308A016F205B304A
:1018B0008A016F2034308A016F205D308A016F20E9
:1018C00043308A016F2079308A016F2063308A01AA
:1018D0006F206C308A016F2065308A016F20FE30E6
:1018E0008A016F20D4308A016F205B308A016F201B
:1018F00035308A016F205D308A016F2053308A01B4
:101900006F2061308A016F2076308A016F20653048
:101910008A016F2020308A016F2020308A016F20D9
:1019200020308A016F205B308A016F2003308A01EA
:101930006F205D308A016F2083164130BD00831215
:101940008A110A16C3238A150A12662764008316B1
:101950002D08013C8A150A128312031DB52C8A1525
:101960000A12C3258A150A12FF2C640083162D085B
:10197000023C8A150A128312031DC42C8A150A120E
:101980000D268A150A12FF2C640083162D08033CCD
:101990008A150A128312031DD32C8A150A124B26AC
:1019A0008A150A12FF2C640083162D08043C8A1540
:1019B0000A128312031DE22C8A150A128F268A1539
:1019C0000A12FF2C640083162D08053C8A150A12A2
:1019D0008312031DF12C8A150A168C238A150A120C
:1019E000FF2C640083162D08063C8A150A12831208
:1019F000031DFF2C8A01D52B8A150A12FF2C8A158C
:101A00000A12D62BFE308A016F2001308A016F2026
:101A1000FE308A016F200C308A016F202D308A0140
:101A20006F2041308A016F2062308A016F206F3051
:101A30008A016F2075308A016F2074308A016F200F
:101A40002D308A016F20FE308A016F20C0308A015C
:101A50006F2048308A016F206F308A016F2062301A
:101A60008A016F2062308A016F2079308A016F20ED
:101A700062308A016F206F308A016F2074308A01D2
:101A80006F2069308A016F2063308A016F207330C4
:101A90008A016F20FE308A016F2094308A016F2006
:101AA00052308A016F2065308A016F2066308A01CA
:101AB0006F206C308A016F206F308A016F20773081
:101AC0008A016F2020308A016F2043308A016F2005
:101AD0006F308A016F206E308A016F2074308A0166
:101AE0006F2072308A016F206F308A016F206C3056
:101AF0008A016F206C308A016F2065308A016F2067
:101B000072308A016F20FE308A016F20D4308A0142
:101B10006F2056308A016F2038308A016F202E30B6
:101B20008A016F2030308A016F2033308A016F20A4
:101B300020308A016F2020308A016F2046308A01D0
:101B40006F2069308A016F2072308A016F206D30FA
:101B50008A016F2077308A016F2061308A016F20FF
:101B600072308A016F2065308A016F2020308A012F
:101B70006F2035308A016F2048308A016F208A1526
:101B80000A1678240800E201E301FF30E000E101D9
:101B900083163008A200A3014730BD00FE30831237
:101BA0008A016F2001308A016F202D308A016F2059
:101BB00050308A016F2052308A016F204F308A01E5
:101BC0006F2050308A016F204F308A016F205230D1
:101BD0008A016F2054308A016F2049308A016F20BA
:101BE0004F308A016F204E308A016F2041308A01C8
:101BF0006F204C308A016F202D308A016F208A15AA
:101C00000A12D3268A110A16C3238A150A12D42768
:101C100083162208B00083120800E201E301FF30BE
:101C2000E000E10183162F08A200A3014730BD00A8
:101C3000FE3083128A016F2001308A016F202D301F
:101C40008A016F2049308A016F204E308A016F204F
:101C500054308A016F2045308A016F2047308A0155
:101C60006F2052308A016F2041308A016F204C3042
:101C70008A016F202D308A016F208A150A12D3261F
:101C80008A110A16C3238A150A12D427831622083A
:101C9000AF0083120800E201E301FF30E000E10140
:101CA00083162E08A200A3014730BD00FE30831228
:101CB0008A016F2001308A016F202D308A016F2048
:101CC00044308A016F2045308A016F2052308A01EA
:101CD0006F2049308A016F2056308A016F204130D1
:101CE0008A016F2054308A016F2049308A016F20A9
:101CF00056308A016F2045308A016F202D308A01CD
:101D00006F208A150A12D3268A110A16C3238A1550
:101D10000A12D42783162208AE0083120800E201BB
:101D2000E3010A30E000E10183162808A200A301C4
:101D30004730BD00FE3083128A016F2001308A01D6
:101D40006F202D308A016F2043308A016F20593077
:101D50008A016F2043308A016F204C308A016F2046
:101D600045308A016F2020308A016F2054308A016B
:101D70006F2049308A016F204D308A016F20453035
:101D80008A016F202D308A016F208A150A12D3260E
:101D90008A110A16C3238A150A12D4278316220829
:101DA000A80083120800FE308A016F20C0308A012B
:101DB0006F2056308A016F2061308A016F206C30AD
:101DC0008A016F2075308A016F2065308A016F208B
:101DD0003A308A016F2020308A016F200430A90038
:101DE000831622088312A400831623088312A500F9
:101DF0006E30B000B1018A01BD20FE308A016F2033
:101E000094308A016F204D308A016F2069308A0139
:101E10006F206E308A016F203A308A016F202030A7
:101E20008A016F20A9016208A4006308A5006E3032
:101E3000B000B1018A01BD2020308A016F204D30F1
:101E40008A016F2061308A016F2078308A016F200B
:101E50003A308A016F2020308A016F20A901600882
:101E6000A4006108A5006E30B000B1018A01BD2058
:101E7000FE308A016F20D4308A016F205B308A01E6
:101E80006F2001308A016F205D308A016F20203081
:101E90008A016F2020308A016F205B308A016F2019
:101EA00002308A016F205D308A016F2020308A0164
:101EB0006F2020308A016F205B308A016F20033051
:101EC0008A016F205D308A016F20080064008A1546
:101ED0000A12091DCE2F64008A150A120918832FD1
:101EE00064008A150A120918782F8A150A12702FB1
:101EF00032308A017F2164008A150A12091C832F5F
:101F00008A110A167B2064008A150A1289189B2FF1
:101F100064008A150A128918902F8A150A12882FD0
:101F200032308A017F2164008A150A12891C9B2F96
:101F30008A110A164D2164008A150A128718B32FD8
:101F400064008A150A128718A82F8A150A12A02F72
:101F500032308A017F2164008A150A12871CB32F50
:101F60008A110A161F2264008A150A120718CB2F3D
:101F700064008A150A120718C02F8A150A12B82F92
:101F800032308A017F2164008A150A12071CCB2F88
:101F90008A110A16F1228A150A12662F0130A3004F
:101FA0002C308A018021080064008A110A16091D5C
:101FB0006B2864008A110A1609181F2864008A1504
:101FC0000A120918E62F8A150A12DE2F32308A010A
:101FD0007F21831622088312A00083162308831210
:101FE000A1006108A30060088A01C3218A110A16B2
:101FF000031D052860088316A2008312610883165A
:10200000A30083128A110A160A288316A20A03194A
:10201000A30A83128A110A16C3230430A900831667
:1020200022088312A400831623088312A5006E30B1
:10203000B000B1018A01BD208A110A16C3236400D1
:102040008A110A168918682864008A110A168918E4
:102050002C288A110A16242832308A017F218316FF
:1020600022088312A000831623088312A1006308AC
:10207000A30062088A01BA218A110A16031D4B289F
:1020800062088316A200831263088316A3008312DA
:102090008A110A16532801308316A2020030031C4D
:1020A000013EA30283128A110A16C3230430A90039
:1020B000831622088312A400831623088312A50026
:1020C0006E30B000B1018A01BD208A110A16C32307
:1020D0008A150A12D42F83165F30BD0083128A112D
:1020E0000A16C3230130A3002C308A0180218A15EF
:1020F0000A1678240800640083163308013C8A110C
:102100000A16831203190B29640083163D08413C0B
:102110008A110A168312031D9A2883165F30BD00A8
:102120000630AD0083128A110A16C32308008A11F3
:102130000A160829640083163D085F3C8A110A16B6
:102140008312031DB02883161F30BD000430AD007C
:1021500083128A110A16C32308008A110A16082955
:10216000640083163D081F3C8A110A168312031D62
:10217000C62883164B30BD000230AD0083128A1191
:102180000A16C32308008A110A1608296400831658
:102190003D084B3C8A110A168312031DDC28831666
:1021A0005530BD000530AD0083128A110A16C323D5
:1021B00008008A110A160829640083163D08553C58
:1021C0008A110A168312031DF22883161530BD00EA
:1021D0000330AD0083128A110A16C32308008A1146
:1021E0000A160829640083163D08153C8A110A1650
:1021F0008312031D082983164130BD000130AD0054
:1022000083128A110A16C32308008A110A160829A4
:102210008A110A164D29640083163D08413C8A1133
:102220000A168312031D212983165530BD00033081
:10223000AD0083128A110A16C32308008A110A16F8
:102240004D29640083163D08553C8A110A168312F5
:10225000031D372983161530BD000230AD008312EF
:102260008A110A16C32308008A110A164D29640030
:1022700083163D08153C8A110A168312031D4D2949
:1022800083164130BD000130AD0083128A110A1659
:10229000C32308008A110A164D29640083163308E7
:1022A000013C8A110A1683120319DD296400831682
:1022B0003D08413C8A110A168312031D6C298316BE
:1022C0001530BD000330AD0083128A110A16C323F6
:1022D00008008A110A16DA29640083163D08153CA5
:1022E0008A110A168312031D822983165530BD00F8
:1022F0000530AD0083128A110A16C32308008A1123
:102300000A16DA29640083163D08553C8A110A161C
:102310008312031D982983164B30BD000230AD0097
:1023200083128A110A16C32308008A110A16DA29B1
:10233000640083163D084B3C8A110A168312031D64
:10234000AE2983161F30BD000430AD0083128A1100
:102350000A16C32308008A110A16DA2964008316B4
:102360003D081F3C8A110A168312031DC4298316D7
:102370005F30BD000630AD0083128A110A16C323F8
:1023800008008A110A16DA29640083163D085F3CAA
:102390008A110A168312031DDA2983164130BD0003
:1023A0000130AD0083128A110A16C32308008A1176
:1023B0000A16DA298A110A161F2A640083163D08B4
:1023C000413C8A110A168312031DF3298316153026
:1023D000BD000230AD0083128A110A16C323080023
:1023E0008A110A161F2A640083163D08153C8A11BB
:1023F0000A168312031D092A83165530BD000330C7
:10240000AD0083128A110A16C32308008A110A1626
:102410001F2A640083163D08553C8A110A16831250
:10242000031D1F2A83164130BD000130AD00831209
:102430008A110A16C32308008A110A161F2A64008B
:1024400083163308013C8A110A1683120319AF2A36
:10245000640083163D08413C8A110A168312031D4D
:102460003E2A83164B30BD000230AD0083128A1124
:102470000A16C32308008A110A16AC2A64008316C0
:102480003D084B3C8A110A168312031D542A8316F9
:102490001530BD000330AD0083128A110A16C32324
:1024A00008008A110A16AC2A640083163D08153C00
:1024B0008A110A168312031D6A2A83161F30BD0073
:1024C0000430AD0083128A110A16C32308008A1152
:1024D0000A16AC2A640083163D081F3C8A110A16AE
:1024E0008312031D802A83165530BD000530AD00D0
:1024F00083128A110A16C32308008A110A16AC2A0D
:10250000640083163D08553C8A110A168312031D88
:10251000962A83165F30BD000630AD0083128A1103
:102520000A16C32308008A110A16AC2A640083160F
:102530003D085F3C8A110A168312031DAC2A8316DC
:102540004130BD000130AD0083128A110A16C32349
:1025500008008A110A16AC2A8A110A16F12A6400A8
:1025600083163D08413C8A110A168312031DC52AB1
:1025700083161530BD000230AD0083128A110A1691
:10258000C32308008A110A16F12A640083163D0845
:10259000153C8A110A168312031DDB2A8316553057
:1025A000BD000330AD0083128A110A16C323080050
:1025B0008A110A16F12A640083163D08553C8A11D7
:1025C0000A168312031DF12A83164130BD00013023
:1025D000AD0083128A110A16C32308008A110A1655
:1025E000F12A640083163308013C8A110A1683120B
:1025F0000319812B640083163D08413C8A110A1699
:102600008312031D102B83165F30BD000630AD0012
:1026100083128A110A16C32308008A110A167E2B18
:10262000640083163D085F3C8A110A168312031D5D
:10263000262B83165530BD000530AD0083128A115C
:102640000A16C32308008A110A167E2B640083161B
:102650003D08553C8A110A168312031D3C2B831634
:102660001F30BD000430AD0083128A110A16C32347
:1026700008008A110A167E2B640083163D081F3C51
:102680008A110A168312031D522B83161530BD00C2
:102690000330AD0083128A110A16C32308008A1181
:1026A0000A167E2B640083163D08153C8A110A1613
:1026B0008312031D682B83164B30BD000230AD0022
:1026C00083128A110A16C32308008A110A167E2B68
:1026D000640083163D084B3C8A110A168312031DC1
:1026E0007E2B83164130BD000130AD0083128A116C
:1026F0000A16C32308008A110A167E2B8A110A16AD
:10270000C32B640083163D08413C8A110A168312CC
:10271000031D972B83165530BD000330AD00831287
:102720008A110A16C32308008A110A16C32B6400F3
:1027300083163D08553C8A110A168312031DAD2BE2
:1027400083161530BD000230AD0083128A110A16BF
:10275000C32308008A110A16C32B640083163D08A0
:10276000153C8A110A168312031DC32B83164130B0
:10277000BD000130AD0083128A110A16C323080080
:102780008A110A16C32BFE308A016F20803083160F
:102790003D078312FD00FE01FE0D7D088A016F20BA
:1027A00008008316AD0183126400053083162D02E4
:1027B0008A110A1683120318132C871283168712A4
:1027C00007308312BB001030B9000730BC0008305E
:1027D000BA00B60110308A01EC20D2002108D300E3
:1027E00087168316871283125208A0005308A1008F
:1027F00005308A01AE21FD002108FE00831603107A
:102800002D0D3E3E840083127D088000840A7E08E0
:102810008000B3308A017F218316AD0A8A110A161F
:102820008312031DD42BD201D3018316AD01831271
:102830006400053083162D028A110A1683120318CC
:10284000392C831603102D0D3E3E840083120008A0
:10285000FD00840A0008FE007D08D2077E080318E8
:10286000013ED3078316AD0A8A110A168312031D8F
:10287000182C5208A0005308A1000530A200A301A3
:102880008A01DF21D2002108D3000800FE308A012E
:102890006F20C0308A016F2054308A016F2065306C
:1028A0008A016F206D308A016F2070308A016F209D
:1028B00065308A016F2072308A016F2061308A0191
:1028C0006F2074308A016F2075308A016F2072305A
:1028D0008A016F2065308A016F203A308A016F20AB
:1028E00020308A016F200330A9005208A400530849
:1028F000A5006E30B000B1018A01BD2000308A0110
:102900006F2043308A016F20FE308A016F2094309F
:102910008A016F2053308A016F2065308A016F2051
:1029200074308A016F2070308A016F206F308A0105
:102930006F2069308A016F206E308A016F207430F9
:102940008A016F203A308A016F2020308A016F207F
:102950000330A9007B08A4007C08A5006E30B000FD
:10296000B1018A01BD2000308A016F2043308A0105
:102970006F20A001A1015908A30058088A01C621AF
:102980008A110A16031DE52CFE308A016F20D4300F
:102990008A016F2053308A016F2065308A016F20D1
:1029A00063308A016F203A308A016F2020308A011B
:1029B0006F204E308A016F202F308A016F20413006
:1029C0008A016F208A110A16052DFE308A016F20B8
:1029D000D4308A016F2053308A016F2065308A011C
:1029E0006F2063308A016F203A308A016F202030D7
:1029F0008A016F200430A9005808A4005908A500D6
:102A00006E30B000B1018A01BD2064008316490810
:102A1000013C8A110A168312031D112D8A110A1610
:102A2000122508008316270883128A01682052089D
:102A30008A0168207B088A016820003086190130ED
:102A40008A0168200030061A01308A01682059087E
:102A50008A01682058088A01682083164908831271
:102A60008A01682083162C0883128A016820831645
:102A7000350883128A0168208316460883128A016A
:102A800068208316300883128A01682083162F0875
:102A900083128A01682083162E0883128A01682017
:102AA0008316280883128A01682066088A01682034
:102AB0005C088A01682056088A01682064088A0137
:102AC00068200800FE308A016F2001308A016F20E3
:102AD0002D308A016F2053308A016F2045308A01E2
:102AE0006F204E308A016F2053308A016F204F30A3
:102AF0008A016F2052308A016F2020308A016F20B6
:102B000054308A016F2045308A016F2053308A018A
:102B10006F2054308A016F202D308A016F202030C1
:102B20008A016F20FE308A016F20C0308A016F2039
:102B300054308A016F2065308A016F206D308A0120
:102B40006F2070308A016F2065308A016F207230EB
:102B50008A016F2061308A016F2074308A016F20F2
:102B600075308A016F2072308A016F2065308A01CA
:102B70006F203A308A016F2020308A016F20FE30AA
:102B80008A016F2094308A016F205B308A016F20A8
:102B900003308A016F205D308A016F20FE308A0188
:102BA0006F200D308A016F2064008A110A16091DFA
:102BB000012E8A110A16D12383164D30BD008312CF
:102BC0008A110A16C3230330A9005208A40053082F
:102BD000A5006E30B000B1018A01BD2000308A012D
:102BE0006F2043308A016F2083161530BD00831299
:102BF0008A110A16C3238A110A1612258A110A1687
:102C0000D42D0330A300E8308A0180210800831608
:102C10000130A70047088312FB00FC01D801D9014D
:102C200083160130C900FE3083128A016F20013003
:102C30008A016F202D308A016F2050308A016F2069
:102C400052308A016F2045308A016F2048308A0156
:102C50006F2045308A016F2041308A016F20543047
:102C60008A016F2020308A016F2050308A016F2046
:102C700048308A016F2041308A016F2053308A0129
:102C80006F2045308A016F202D308A016F208A1114
:102C90000A16D1235208A0005308A100A3013C301A
:102CA0008A01BE218A110A16031D592E8A110A169D
:102CB0002E2F83160130BC000130BB0083128A1511
:102CC0000A16862483160230BC000130BB00831232
:102CD0008A150A1686248A150A162B2183160230B5
:102CE000A70047088312FB00FC01831648088312E3
:102CF000D800D901FE308A016F2001308A016F208F
:102D00002D308A016F2053308A016F204F308A01A5
:102D10006F2041308A016F204B308A016F202030B4
:102D20008A016F2050308A016F2048308A016F205D
:102D300041308A016F2053308A016F2045308A016B
:102D40006F202D308A016F208A150A16972083166E
:102D50000130BC000130BB0083128A150A1686249C
:102D600083160330A7003E088312FB00FC01D80144
:102D7000D901FE308A016F2001308A016F202D3089
:102D80008A016F2048308A016F2045308A016F2008
:102D900041308A016F2054308A016F2049308A0106
:102DA0006F204E308A016F2047308A016F2020301B
:102DB0008A016F2050308A016F2048308A016F20CD
:102DC00041308A016F2053308A016F2045308A01DB
:102DD0006F202D308A016F208A150A162B21831649
:102DE0000430A7003E088312FB00FC0183163F0855
:102DF0008312D800D901FE308A016F2001308A0188
:102E00006F202D308A016F2052308A016F204530AB
:102E10008A016F2046308A016F204C308A016F2072
:102E20004F308A016F2057308A016F2020308A018D
:102E30006F2050308A016F2048308A016F20413066
:102E40008A016F2053308A016F2045308A016F203C
:102E50002D308A016F208A150A16972083160530B7
:102E6000A70025088312FB00FC01831626088312A5
:102E7000D800D90183160130BC00BB0183128A152A
:102E80000A1686248A150A16D02583160230BC003D
:102E90000130BB0083128A150A168624FE308A018F
:102EA0006F2001308A016F202D308A016F2043305E
:102EB0008A016F204F308A016F204F308A016F20C6
:102EC0004C308A016F2044308A016F204F308A01D4
:102ED0006F2057308A016F204E308A016F202D30CD
:102EE0008A016F205208A0005308A1007C08A300AB
:102EF0007B088A01BE218A110A16031D882F8A11B8
:102F00000A16D1238A110A1646248A110A16722F2C
:102F10008A0110238A01122383160230BC00BB01F0
:102F200083128A150A1686248316C90183128A150C
:102F30000A16D0258316A7018312FB01FC01D801D4
:102F4000D9018A110A161225FE308A016F2001303C
:102F50008A016F20FE308A016F200D308A016F20B8
:102F60004F308A016F2070308A016F2065308A01EE
:102F70006F2072308A016F2061308A016F207430B7
:102F80008A016F2069308A016F206F308A016F20BB
:102F90006E308A016F2020308A016F2063308A01F1
:102FA0006F206F308A016F206D308A016F20703082
:102FB0008A016F206C308A016F2065308A016F2092
:102FC00074308A016F2065308A016F2064308A0175
:102FD0006F202E308A016F20FE308A016F20C030B2
:102FE0008A016F205B308A016F2003308A016F20D5
:102FF0005D308A016F2083164130BD0083128A1133
:103000000A16C3238A150A1678248A01802B831690
:103010000330A70083127F08FB00FC01D801D9010F
:1030200083160130C900FE3083128A016F200130FF
:103030008A016F202D308A016F2048308A016F206D
:1030400045308A016F2041308A016F2054308A0157
:103050006F2049308A016F204E308A016F2047303F
:103060008A016F2020308A016F2050308A016F2042
:1030700048308A016F2041308A016F2053308A0125
:103080006F2045308A016F202D308A016F20831612
:103090000130BC000130BB0083128A150A16862459
:1030A00083160230BC000130BB0083128A150A1659
:1030B00086248A150A162B2183160630A700831250
:1030C0007F08FB00FC015008D8005108D900FE30F1
:1030D0008A016F2001308A016F202D308A016F2014
:1030E00042308A016F2041308A016F204B308A01C3
:1030F0006F2045308A016F2020308A016F205030C8
:103100008A016F2048308A016F2041308A016F2088
:1031100053308A016F2045308A016F202D308A019B
:103120006F208A150A1697208A110A162E2F8A11E7
:103130000A16D1238A150A1697215808A0005908A3
:10314000A100A30100308A01B3218A150A16031DCC
:103150002A2964008A150A16831683103A1E8314DE
:103160008312831827290130D8020030031C013E46
:10317000D9028A110A16D1238A150A1697218316B5
:1031800028088312A600A7016408A2006508A3000E
:103190008A01FB21FD002508FE007D08A0007E08B5
:1031A000A1006430A200A3018A01DF218316CB00B5
:1031B000CC0A640038084C028A150A168312031CD4
:1031C000E52883163908CC00831283164C08831235
:1031D000A00083164B0883128A01C121FD0052080A
:1031E000A0005308A1007C08A3007B088A01C3212A
:1031F0008316A00083127D088400831620088312A2
:103200008A01D8218316A000A100640020082104AF
:103210008A150A1683120319192983160130BC0076
:103220000130BB0083128A150A1686248A150A16F5
:10323000212983160130BC00BB0183128A150A16AE
:1032400086248A110A16462483163A1283128A1596
:103250000A169D2808008A010C235208A000530872
:10326000A1007C08A3007B088A01B7218A150A16F1
:10327000031D962964008A150A16831683103A1EC8
:1032800083148312831893298A110A16D1238A156D
:103290000A169721831628088312A600A70164083E
:1032A000A2006508A3008A01FB21FD002508FE009D
:1032B0007D08A0007E08A1006430A200A3018A015D
:1032C000DF218316CB00CC0A640038084C028A1533
:1032D0000A168312031C702983163908CC00831246
:1032E000640083164B084C028A150A1683120318D1
:1032F000852983160130BC000130BB0083128A157A
:103300000A1686248A150A168D2983160130BC00F8
:10331000BB0183128A150A1686248A110A164624CE
:1033200083163A1283128A150A162D2908005208AC
:103330007B02DA005308031C013E7C02DB0083168B
:1033400030088312A600A7015A08A2005B08A30058
:103350008A01FB21E6002508E70083162F08831267
:10336000A600A7015A08A2005B08A3008A01FB215E
:10337000FD002508FE007D08DC077E080318013EDD
:10338000DD075C08A0005D08A100831638088312E1
:103390008A01BD218A150A16031DD3298316380810
:1033A0008312DC00DD015C08A0005D08A10083162B
:1033B000390883128A01B6218A150A16031DE529E8
:1033C000831639088312DC00DD015E085202D60044
:1033D0005F08031C013E5302D70083162E08831298
:1033E000A600A7015608A2005708A3008A01FB21E6
:1033F000FD002508FE007D085C02FD007E08031C20
:10340000013E5D02FE0066087D07E40067080318C0
:10341000013E7E07E5005208DE005308DF00080089
:10342000FE308A016F2001308A016F2050308A01FE
:103430006F2043308A016F2020308A016F20433093
:103440008A016F206F308A016F206E308A016F20F1
:1034500074308A016F2072308A016F206F308A01C8
:103460006F206C308A016F202E308A016F202E3041
:103470008A016F202E308A016F208A016220FE3C73
:103480008A150A16031D3D2A8A0162208316A400AC
:1034900064002408003C8A150A168312031D592A69
:1034A0008A150A16B1238A150A161C238A150A16CC
:1034B000CE2A640083162408013C8A150A1683125A
:1034C000031D682A8A110A16072E8A150A16CE2AA3
:1034D000640083162408023C8A150A168312031D11
:1034E000772A8A150A1607288A150A16CE2A640032
:1034F00083162408033C8A150A168312031D892AA1
:103500008A150A1621248A150A168C238A150A168A
:10351000CE2A640083162408043C8A150A168312F6
:10352000031D982A8A110A1662258A150A16CE2AC0
:10353000640083162408053C8A150A168312031DAD
:10354000A62A8A01802B8A150A16CE2A64008316C1
:103550002408063C8A150A168312031DBF2A8A0115
:1035600062208316BC0083128A0162208316BB008E
:1035700083128A150A1686248A150A16CE2A640032
:1035800083162408073C8A150A168312031DCE2AC7
:103590008A110A1612258A150A16CE2A8A150A16C3
:1035A000102A03178D0103138A0165218316C700B2
:1035B0008312031701308D0003138A0165218316DE
:1035C000C8008312031702308D0003138A0165219E
:1035D0008316BE008312031703308D0003138A0184
:1035E00065218316BF008312031704308D00031377
:1035F0008A016521FF00031705308D0003138A013E
:103600006521D000031706308D0003138A01652160
:10361000D100031707308D0003138A01652183163B
:10362000A5008312031708308D0003138A0165215A
:103630008316A6008312080003178D018316031357
:10364000470883128A016F21031701308D0083160A
:103650000313480883128A016F21031702308D007B
:10366000831603133E0883128A016F210317033068
:103670008D00831603133F0883128A016F210317FD
:1036800004308D0003137F088A016F210317053072
:103690008D00031350088A016F21031706308D0037
:1036A000031351088A016F21031707308D00831619
:1036B0000313250883128A016F21031708308D0038
:1036C00083160313260883128A016F21080003174B
:1036D00009308D0003138A0165218316B00083121F
:1036E00003170A308D0003138A0165218316AF008A
:1036F000831203170B308D0003138A016521831693
:10370000AE00831203170C308D0003138A0165216C
:103710008316A80083120800031709308D00831652
:103720000313300883128A016F2103170A308D00BA
:10373000831603132F0883128A016F2103170B309E
:103740008D00831603132E0883128A016F2103173D
:103750000C308D0083160313280883128A016F2111
:103760000800FE308A016F2001308A016F2052303C
:103770008A016F2065308A016F2063308A016F20D3
:1037800065308A016F2069308A016F2076308A01A6
:103790006F2069308A016F206E308A016F20673098
:1037A0008A016F2020308A016F2075308A016F20D6
:1037B00070308A016F2064308A016F2061308A0185
:1037C0006F2074308A016F2065308A016F2073305A
:1037D0008A016F202E308A016F202E308A016F20DF
:1037E0002E308A016F208A0162208316C70083125F
:1037F0008A0162208316C80083128A016220831620
:10380000BE0083128A0162208316BF0083128A01E0
:103810006220FF008A016220D0008A016220D1006C
:103820005008A600A7016430A200A3018A01FB2171
:10383000FD002508FE0051087D04D0007E08D1005F
:103840000800FE308A016F2001308A016F2052305B
:103850008A016F2065308A016F2063308A016F20F2
:1038600065308A016F2069308A016F2076308A01C5
:103870006F2069308A016F206E308A016F206730B7
:103880008A016F2020308A016F2075308A016F20F5
:1038900070308A016F2064308A016F2061308A01A4
:1038A0006F2074308A016F2065308A016F20733079
:1038B0008A016F202E308A016F202E308A016F20FE
:1038C0002E308A016F208A0162208316B000831295
:1038D0008A0162208316AF0083128A016220831658
:1038E000AE0083128A0162208316A80083120800AA
:1038F00064008A150A16091D802C8A150A16782C70
:103900000130A3002C308A01802108006400831656
:103910003B08003C8A150A168312031DEB2C640039
:1039200083163C08013C8A150A168312031DA32C3A
:1039300086118316861183120510831605108312D3
:103940008A150A16EB2C640083163C08023C8A1583
:103950000A168312031DB72C061283160612831251
:1039600085108316851083128A150A16EB2C6400C5
:1039700083163C08033C8A150A168312031DCB2CC0
:10398000861283168612831205118316051183127F
:103990008A150A16EB2C640083163C08043C8A1531
:1039A0000A168312031DDB2C0512831605128312DF
:1039B0008A150A16EB2C640083163C08053C8A1510
:1039C0000A168312031DEB2C8512831685128312AF
:1039D0008A150A16EB2C640083163B08013C8A15F5
:1039E0000A168312031D502D640083163C08013C07
:1039F0008A150A168312031D082D86158316861153
:103A0000831205148316051083128A150A16502D89
:103A1000640083163C08023C8A150A168312031DB3
:103A20001C2D061683160612831285148316851024
:103A300083128A150A16502D640083163C08033C35
:103A40008A150A168312031D302D861683168612D8
:103A5000831205158316051183128A150A16502D37
:103A6000640083163C08043C8A150A168312031D61
:103A7000402D05168316051283128A150A16502D3D
:103A8000640083163C08053C8A150A168312031D40
:103A9000502D85168316851283128A150A16502D0D
:103AA0000800FE308A016F2040308A016F20083004
:103AB0008A016F2014308A016F2008308A016F203C
:103AC00000308A016F2000308A016F2000308A01A7
:103AD0006F2000308A016F2000308A016F20FE3095
:103AE0008A016F2048308A016F2004308A016F20DC
:103AF0000E308A016F201F308A016F2004308A0146
:103B00006F2004308A016F2004308A016F20043056
:103B10008A016F2000308A016F20FE308A016F20F9
:103B200050308A016F2004308A016F2004308A01EE
:103B30006F2004308A016F2004308A016F201F300B
:103B40008A016F200E308A016F2004308A016F20B5
:103B500000308A016F20FE308A016F2058308A01C0
:103B60006F2000308A016F2001308A016F200530FC
:103B70008A016F200D308A016F201F308A016F206B
:103B80000C308A016F2004308A016F2000308A01D6
:103B90006F20FE308A016F2001308A016F200800FB
:103BA0000830BB000130B9006430A2000A308A013D
:103BB0001C217F30A2000A308A011C2164308A0156
:103BC0007F210830BB000130B9006430A2000A3008
:103BD0008A011C217F30A2000A308A011C210800C2
:02400E00363F3B
:10420000AA005A00DC001E00500020001C003C00E8
:0A42100000000B000500010005008E
:00000001FF
